:020000040000FA
:04000000803105281E
:100008000900D8207920941114111410941012109A
:1000180092101211121292121213921399111911AD
:1000280019109910F130A000FF30A1001930A00775
:100038000030A13D4820A401A30164212008A600A6
:100048002108A7007C215C222008F2002108F30087
:100058005E2074200130F4006C2057222008F20042
:100068002108F3005E2074200230F4006C20200880
:10007800F5002108F600E830F9000330FA000822FC
:1000880070181A286300462817100130A200F320C0
:100098000430F200F3015E208030A200F3200C301F
:1000A800F50056281930F000F00B58280000F50B21
:1000B80056280800F30A0E30F100BD30F000F00BAE
:1000C8006328F10B6128F20B5F28F30B5F28080007
:1000D800E830F2000330F3005E20F40B6C280800CF
:1000E8009915191519149914080012101211921063
:1000F8000A30F200F3015E204721A5080319802881
:100108001710121292121213921397100F30F20056
:10011800F3015E2017169716171397130530F00092
:10012800F00B942817150530F000F00B99281711DB
:100138000530F200F3015E200330AB0017150530DF
:10014800F000F00BA52817110230F100F001F00BB8
:10015800AB28F10BAA281330F000F00BB128AB0B39
:10016800A2280530F200F3015E2017129716171324
:1001780097130530F000F00BBF2817150530F00075
:10018800F00BC42817118530F000F00BC92828306F
:10019800A200F3200630A200F3200C30A200F320C6
:1001A80048200C30A9000800603031008D008F0114
:1001B80091019201063093002100131193133E0020
:1001C800B801C301CE01D901E4013300941390139F
:1001D80020008C018D018E018F01900108004721BC
:1001E800A5080319F32897101212921212139213EA
:1001F8001712971217139713A21B9717221B17177B
:10020800A21A9716221A17160230F000F00B0A29C4
:10021800000017150530F000F00B102917110530F4
:10022800F000F00B15291712971217139713A2193C
:10023800971722191717A21897162218171602309F
:10024800F000F00B2529000017150530F000F00B21
:100258002B2917110530F000F00B302997131713CD
:10026800971217125530F000F00B38290D1846294F
:1002780010302202031846292208073C0318462991
:100288002208A9000800A5012A110D182A1597149B
:100298000530F500562017100530F50056201715C3
:1002A8000530F500562092178D1B5C29FF30A500FC
:1002B80017111930F500562017102A1917140800BD
:1002C80017102408013C03186D290230A4021030CD
:1002D800A3072408F5004030F9004B2223087007D3
:1002E800AC0080302C04A200F3200530F50056281D
:1002F8001714A8012608F5002708F6001030F900A1
:100308002730FA000822F009701C9E292608F500FB
:100318002708F6001030F9002730FA001722750870
:10032800A8007008A6007108A70030302807A200AE
:10033800F320AA292608F5002708F600E830F90076
:100348000330FA000822F009701CBE292608F500BF
:100358002708F600E830F9000330FA00172275087C
:10036800A8007008A6007108A70030302807A2006E
:10037800F320C9292608F5002708F6006430F9009B
:10038800FA010822F009701CDC292608F500270864
:10039800F6006430F900FA0117227508A800700801
:1003A800A6007108A70030302807A200F320E7292B
:1003B8002608F5002708F6000A30F900FA01082295
:1003C800F009701CF9292608F5002708F6000A30FC
:1003D800F900FA0117227508A8007008A60071082C
:1003E800A70030302807A200F32030302607A200EB
:1003F800F328F00175087902031D080076087A02CF
:10040800031D0800F0090800F00176087A02031CB1
:1004180008007A087602031C152A79087502031861
:100428000800F00908007508F7007608F800790850
:10043800FB007A08FC00F201F3017B08F5007C0858
:10044800F600F901FA01FD21701C2D2AF501F601CB
:1004580008001030F4000310F70DF80DF20DF30D3D
:100468007B08F2027C08F33B77140318402A7710C4
:100478007B08F2077C08F33DF40B2F2A7708F50078
:100488007808F6007208F0007308F1000800F0011F
:1004980075087918F0070310F90C0310F50DF90821
:1004A800031D4C2A080099151911191099140800F0
:0A04B8009911191519149910080084
:020000040001F9
:0A000E008C3FFE3F9F3FFF1FFF3FA6
:00000001FF
