:020000040000FA
:04000000803105281E
:1000080009002820111016140130F40020201610C1
:100018000130F4002020072863001028F30A0E306E
:10002800F100BD30F000F00B1728F10B1528F20B8A
:100038001328F30B13280800E830F2000330F3000C
:100048001220F40B20280800603031008D008F0149
:1000580091019201063093002100131193133E0081
:10006800B801C301CE01D901E40133009413901300
:0E00780020008C018D018E018F019001080087
:020000040001F9
:0A000E008C3FFE3F9F3FFF1FFF3FA6
:00000001FF
