:020000040000FA
:040000008031222801
:10000800FE00030EFF0008082000AD000A08AB0040
:100018008A012E00961E17288C1E17282000EC2215
:100028002E008C12172820002B088A002D08880023
:0A0038007F0E8300FE0E7E0E09000D
:10004400FA209B208B170B17121092101211121208
:10005400921212139213A801A9010130BA00803040
:10006400B9000130B80015211E12A0309D009C017A
:10007400B70151222E0096162000B501B6016F205B
:10008400A201A1019A21DF30AF008230B000B22179
:100094003508A4003608A500D0210130A200A10132
:1000A4009A212808A4002908A500D021B50A03191B
:1000B400B60A0A30F200F301852041286F20A2011C
:1000C400A1019A21E630AF008230B000B2210130A4
:1000D400F4009320602863006D2817100130A000FD
:1000E40029210430F200F30185208030A000292169
:1000F4000C30F5007D281930F000F00B7F2800004B
:10010400F50B7D280800F30A0E30F100BD30F00035
:10011400F00B8A28F10B8828F20B8628F30B86282B
:100124000800E830F2000330F3008520F40B932834
:1001340008001210121192100A30F200F301852007
:100144007D21A3080319A228171012129212121368
:10015400921397100F30F200F301852017169716AB
:10016400171397130530F000F00BB6281715053058
:10017400F000F00BBB2817110530F200F3018520C5
:100184000330B20017150530F000F00BC728171123
:100194000230F100F001F00BCD28F10BCC28133024
:1001A400F000F00BD328B20BC4280530F200F301A1
:1001B400852017129716171397130530F000F00BCC
:1001C400E12817150530F000F00BE62817118530EB
:1001D400F000F00BEB282830A00029210630A00005
:1001E40029210C30A00029216F200C30A700080021
:1001F400603031008D008F0191019201063093002F
:100204002100131193133E00B801C301CE01D9019B
:10021400E40133009413901320008C018D018E01AE
:100224008F0190010800F0301F05B300B9043A03B0
:1002340003191E29B8161F29B81239089F00E03087
:100244001E05B300B804381238089E0008007D214A
:10025400A308031929299710121292121213921348
:100264001712971217139713A01B9717201B171712
:10027400A01A9716201A17160230F000F00B402926
:10028400000017150530F000F00B46291711053052
:10029400F000F00B4B291712971217139713A0199C
:1002A400971720191717A018971620181716023039
:1002B400F000F00B5B29000017150530F000F00B7F
:1002C400612917110530F000F00B662997131713F5
:1002D400971217125530F000F00B6E290D187C2977
:1002E4001030200203187C292008073C03187C29BD
:1002F4002008A7000800A3012E110D182E1597142D
:100304000530F5007D2017100530F5007D20171508
:100314000530F5007D2092178D1B9229FF30A30034
:1003240017111930F5007D2017102E191714080025
:1003340017102208013C0318A3290230A20210302E
:10034400A1072208F5004030F900CC2221087007EB
:10035400B30080303304A00029210530F5007D2846
:100364002F088400300885000008AA00AA08031991
:1003740008001714B10101302A02031CCF29B10A65
:1003840031082F0784000030303D85000008A000AC
:1003940029212A083102031CC12908001714A601C7
:1003A4002408F5002508F6001030F9002730FA007B
:1003B4008922F009701CF2292408F5002508F600AA
:1003C4001030F9002730FA0098227508A60070084A
:1003D400A4007108A50030302607A0002921FE29B9
:1003E4002408F5002508F600E830F9000330FA0087
:1003F4008922F009701C122A2408F5002508F60049
:10040400E830F9000330FA0098227508A600700855
:10041400A4007108A50030302607A00029211D2A58
:100424002408F5002508F6006430F900FA01892251
:10043400F009701C302A2408F5002508F600643001
:10044400F900FA0198227508A6007008A400710842
:10045400A50030302607A00029213B2A2408F500F6
:100464002508F6000A30F900FA018922F009701C07
:100474004D2A2408F5002508F6000A30F900FA018F
:1004840098227508A6007008A4007108A5003030F1
:100494002607A000292130302407A0002929B70805
:1004A40003199E173703031D592A24000E14023022
:1004B40020003702031D602A25008E170330200018
:1004C4003702031D672A2400141404302000370265
:1004D400031D6E2A25009417053020003702031DE2
:1004E400752A24001A14063020003702031D7C2AC2
:1004F40025009A1720000800F00175087902031DF1
:10050400080076087A02031D0800F0090800F001CB
:1005140076087A02031C08007A087602031C962ADD
:100524007908750203180800F00908007508F70037
:100534007608F8007908FB007A08FC00F201F30160
:100544007B08F5007C08F600F901FA017E22701C94
:10055400AE2AF501F60108001030F4000310F70D7F
:10056400F80DF20DF30D7B08F2027C08F33B7714CF
:100574000318C12A77107B08F2077C08F33DF40BBB
:10058400B02A7708F5007808F6007208F0007308BE
:10059400F1000800F00175087918F0070310F90C50
:1005A4000310F50DF908031DCD2A080078088A0008
:1005B4007708F70A0319F80A82000634733474348E
:1005C4006134723474342034053461346D346F34DE
:0C05D4006E346734A80A0319A90A080055
:020000040001F9
:0A000E008C3FFE3F9F3FFF1FFF3FA6
:00000001FF
