:020000040000FA
:0400000080312428FF
:10000800FE00030EFF0008082000D0000A08CA00FE
:100018008A012E00961E19288C1E192820008B3163
:10002800B22380312E008C12192820004A088A0039
:0E003800500888007F0E8300FE0E7E0E090029
:100048006A23FA228B170B179411141114109410A9
:100058009114111591151116911212109210121176
:100068001212921212139213BF01C0010130E00064
:100078008030DF000130DE008831F62080311E122A
:10008800A0309D009C01DD018A31D52280312E00EF
:10009800961620009911191119109910C801C90153
:1000A800B8014E14CE14AD01AE01FF30BB00BC0048
:1000B8004E11CB01CC01A201A301A601A701A90100
:1000C800A90AE93029078400D6012330563D850066
:1000D8008001E23029078400D6012330563D85008F
:1000E800800106302902031C64280130C200013057
:1000F800C100AB01AC01CE154E12B901BA01BD0168
:10010800BE01AA01A801CE12B7010A30F200F3011C
:100118008831A32080314E108C184E14F0014E1CEB
:10012800F0097008D600F001CE18F00956087005DD
:10013800D800581CBD28B80A3808D600561CB22862
:10014800CE114B303F07CB000030403DCC00013092
:10015800A1001130DC0088310020803106303802DF
:10016800031DBD2896303F07A6000030403DA7007C
:10017800B701CE104E18CE142608F5002708F60051
:100188003F08F9004008FA008B31192380317008C4
:10019800D6003808F5000630F900402756087005E3
:1001A800D800581CDC28A801CE16FF30A600A700EE
:1001B8008931932180314808F5004908F6003F0845
:1001C800F9004008FA008B3119238031701CF4289B
:1001D800232480310A303F07C8000030403DC90061
:1001E800F001CE1EF0097008D6006108F900620817
:1001F800FA001E30F500F6018B31192381315608BB
:100208007005D800581C0B29CE16A80A17296108B2
:10021800F5006208F6001B30F900FA018B3119234A
:1002280081317018CE1241084202031D5E2946270B
:100238006108F9006208FA002330F500F6018B31F5
:1002480019238131701C2C298831222081315E29A3
:100258006508F5006608F6001730F900FA018B31D9
:1002680019238131701C5E2988318A208131073039
:10027800A1000A30DC008831002081310330A10060
:100288001F30DC008831002081310730A1000A309E
:10029800DC008831002081310130A1003730DC00DA
:1002A800883100208131AA01B901BA01FF30BD00AF
:1002B800BE00CE1241084202031984298523E93081
:1002C80042078400D6012330563D85000008F5001A
:1002D8000330F90040277008D6006108F900620869
:1002E800FA002330F500F6018B31192381315608C5
:1002F8007005D800581C832988312220813187292C
:100308008831EC2081312408F5002508F6002830D2
:10031800F900FA018B31192381317008D60065087C
:10032800F5006608F6001930F900FA018B31192337
:1003380081317008D80056085805DA003805D6000B
:10034800D800581CAB29AF218131AD29AC299612B0
:100358008F286300AD29961688318D208131B1012F
:10036800B00189317B2181318330D2008B30D300B9
:100378008931F72181310130B100B00189317B2108
:1003880081312408B3002508B4008A314A2281311A
:10039800E93042078400D8012330583D85000330F6
:1003A80080002408BB002508BC003F08F90040086D
:1003B800FA002208F5002308F6008B311923813151
:1003C8007008D8002408F9002508FA002030F50044
:1003D8000330F6008B311923813158087005DA0093
:1003E8005A18DF2A0230A0001A264508A400470838
:1003F800A5008831B92081314E1F152AE9304207FE
:100408008400D8012330583D850003300002031DC5
:10041800112A8B31BB238231142A8B31B6238231C6
:100428003D2AE93042078400D8012330583D850031
:1004380003300002031D2D2A8B31B6238231E930A7
:1004480042078400D8012330583D850004308000DD
:10045800392A8B31BB238231E93042078400D80125
:100468002330583D8500033080002408BB00250850
:10047800BC0088318D208231B101B00189317B21E6
:1004880082318330D2008B30D3008931F721823119
:100498000130B100B00189317B2182312408B300D9
:1004A8002508B4008A314A2282319130D2008B303B
:1004B800D3008931F7218231B3018C1AB30A8A310A
:1004C800152282312408F9002508FA002030F500A9
:1004D8000330F6008B31192382317008D8002208C6
:1004E800F5002308F600F901FA018B310723823160
:1004F80058087005DA005A1CC22AE93042078400FD
:10050800D8012330583D850003300002031D902A8E
:100518008B31B6238231932A8B31BB238231283029
:10052800F200F3018831A3208B310223823102309B
:10053800F4008831B12082312C303F07A20001300D
:10054800403DA30088318D208231B101B00189314D
:100558007B2182319330D2008B30D3008931F7214F
:1005680082310130B100B00189317B218231240808
:10057800B3002508B4008A314A2282311430F200CF
:10058800F3018831A3208B31022382310130F4003A
:100598008831B12082312408F5002508F600203082
:1005A800F9000330FA008B3119238231701CDE2ADE
:1005B800A201A301D929961288318D208231B10177
:1005C800B00189317B2182319A30D2008B30D3003F
:1005D8008931F7218B31BB238231F430F2000130AD
:1005E800F3008831A32082318B31022B12101211B3
:1005F80092100A30F200F3018831A3208331893147
:100608005E218331B2080319032B171012129212BC
:100618001213921397100F30F200F3018831A320C0
:10062800833117169716171397130530F000F00B40
:100638001B2B17150530F000F00B202B1711053078
:10064800F200F3018831A32083310330D500171558
:100658000530F000F00B2E2B17110230F100F001DD
:10066800F00B342BF10B332B1330F000F00B3A2B3B
:10067800D50B2B2B0530F200F3018831A3208331F1
:1006880017129716171397130530F000F00B4A2B23
:1006980017150530F000F00B4F2B17118530F000BF
:1006A800F00B542B2830AF0089310A2183310630F2
:1006B800AF0089310A2183310C30AF0089310A211A
:1006C80088318D2083310C30B6000800603031004D
:1006D8008D008F01910192010630930021001311C2
:1006E80093133E00B801C301CE01D901E4013300E0
:1006F8009413901320008C018D018E018F019001BD
:100708000800E23042078400D8012330583D8500B4
:100718002B080007D600D8012C08583DD7005608EA
:10072800F5005708F6003F08F9004008FA008B3139
:1007380019238331701CAE2B4208F5000630F900EE
:100748008B3128238331700AC2003F08AB00400870
:10075800AC00222CE93042078400D8012330583DF0
:1007680085008008031DC32B8B3102238331E930B8
:1007780042078400D8012330583D8500222C00030D
:10078800031DD12B8831EC208331E93042078400E6
:10079800D8012330583D8500222C0003031DDF2B90
:1007A800883185208331E93042078400D80123301D
:1007B800583D8500222C03300002031DEE2B8B319F
:1007C800BB238331E93042078400D8012330583DE8
:1007D8008500222C04300002031DFD2B8B31B6232B
:1007E8008331E93042078400D8012330583D850021
:1007F800222C05300002031D0C2C8A31D0228431B2
:10080800E93042078400D8012330583D8500222C66
:1008180006300002031D1B2C8A31CB228431E930BB
:1008280042078400D8012330583D8500222C073028
:100838000002031D222C8831F12084310800883100
:100848008D208431B101B00189317B218431410887
:10085800420203186D2CA90142084102DA00013056
:10086800F9005A08F5008B311223843170186C2C6A
:10087800A90A29084207DA0002305A02DB00F5000B
:100888000630F9008B31282384317008DA005A0ABF
:10089800DB00E9305B078400DA0123305A3D85002C
:1008A8000008B3008A31152284319130D2008B3090
:1008B800D3008931F721843142084102DA0029083E
:1008C800F5005A08F9008B311223843170183C2C3A
:1008D800B22C420841020318B22CA9014108420275
:1008E800DA00063CDB000130F9005B08F5008B31CB
:1008F800122384317018B22CA90A29084207DA0099
:1009080002305A02DB00F5000630F9008B3128234B
:1009180084317008DA005A0ADB00E9305B0784008A
:10092800DA0123305A3D85000008B3008A311522C8
:1009380084319130D2008B30D3008931F721843152
:1009480041084202DA00063CDB002908F5005B0892
:10095800F9008B31122384317018802C0130B100DA
:10096800B00189317B218431AC30D2008B30D30087
:100978008931F72184313808B3008A31152284314E
:10098800AE30D2008B30D3008931F721843124086E
:10099800B3002508B4008A314A228431B030D2002D
:1009A8008B30D3008931F72184313708B3008A317D
:1009B800152284319130D2008B30D3008931F72150
:1009C80084316108B3006208B4008A314A22843154
:1009D8009130D2008B30D3008931F72184316508FA
:1009E800B3006608B4008A314A2A21001311200096
:1009F800200821009E002000A008031D062D3E00AF
:100A08003814F22D2003031D0C2D3E00B814F22DCE
:100A180002302002031D132D3E003815F22D03303D
:100A28002002031D1A2D3E00B815F22D04302002B5
:100A3800031D212D3E003816F22D05302002031D1E
:100A4800282D3E00B816F22D06302002031D2F2D4A
:100A58003E003817F22D07302002031D362D3E00C8
:100A6800B817F22D08302002031D3D2D3E00431417
:100A7800F22D09302002031D442D3E00C314F22D2F
:100A88000A302002031D4B2D3E004315F22D0B307A
:100A98002002031D522D3E00C315F22D0C302002FA
:100AA800031D592D3E004316F22D0D302002031D63
:100AB800602D3E00C316F22D0E302002031D672D57
:100AC8003E004317F22D0F302002031D6E2D3E000D
:100AD800C317F22D10302002031D752D3E004E1451
:100AE800F22D11302002031D7C2D3E00CE14F22D74
:100AF80012302002031D832D3E004E15F22D1330B7
:100B08002002031D8A2D3E00CE15F22D143020023E
:100B1800031D912D3E004E16F22D15302002031DA7
:100B2800982D3E00CE16F22D16302002031D9F2D63
:100B38003E004E17F22D17302002031DA62D3E0051
:100B4800CE17F22D18302002031DAD2D3E0059148A
:100B5800F22D19302002031DB42D3E00D914F22DB8
:100B68001A302002031DBB2D3E005915F22D1B30F3
:100B78002002031DC22D3E00D915F22D1C30200283
:100B8800031DC92D3E005916F22D1D302002031DEC
:100B9800D02D3E00D916F22D1E302002031DD72D70
:100BA8003E005917F22D1F302002031DDE2D3E0096
:100BB800D917F22D20302002031DE52D3E006414C4
:100BC800F22D21302002031DEC2D3E00E414F22DFD
:100BD80022302002031DF22D3E006415210013125D
:100BE8000130980013120F309800131113112000D0
:100BF800200821009E0093170230F500200088315C
:100C08009B2086312100131400001318092E93131A
:100C18003E00B801C301CE01D901E40121000D084D
:100C28002000C40021001311200008002100131522
:100C38002000200821009E002000A008031D272E68
:100C48003E003814132F2003031D2D2E3E00B81428
:100C5800132F02302002031D342E3E003815132FA7
:100C680003302002031D3B2E3E00B815132F04301D
:100C78002002031D422E3E003816132F0530200295
:100C8800031D492E3E00B816132F06302002031DFF
:100C9800502E3E003817132F07302002031D572E01
:100CA8003E00B817132F08302002031D5E2E3E00A9
:100CB8004314132F09302002031D652E3E00C31470
:100CC800132F0A302002031D6C2E3E004315132FEC
:100CD8000B302002031D732E3E00C315132F0C305A
:100CE8002002031D7A2E3E004316132F0D302002DA
:100CF800031D812E3E00C316132F0E302002031D44
:100D0800882E3E004317132F0F302002031D8F2E0D
:100D18003E00C317132F10302002031D962E3E00ED
:100D28004E14132F11302002031D9D2E3E00CE14A9
:100D3800132F12302002031DA42E3E004E15132F30
:100D480013302002031DAB2E3E00CE15132F143096
:100D58002002031DB22E3E004E16132F153020021E
:100D6800031DB92E3E00CE16132F16302002031D88
:100D7800C02E3E004E17132F17302002031DC72E1A
:100D88003E00CE17132F18302002031DCE2E3E0032
:100D98005914132F19302002031DD52E3E00D914E3
:100DA800132F1A302002031DDC2E3E005915132F75
:100DB8001B302002031DE32E3E00D915132F1C30D3
:100DC8002002031DEA2E3E005916132F1D30200263
:100DD800031DF12E3E00D916132F1E302002031DCD
:100DE800F82E3E005917132F1F302002031DFF2E27
:100DF8003E00D917132F20302002031D062F3E0076
:100E08006414132F21302002031D0D2F3E00E4141B
:100E1800132F22302002031D132F3E0064152100DA
:100E280013120130980013120F3098001315131580
:100E38002000200821009E0093170230F5002000B2
:100E480088319B20873121001314000013182A2FA2
:100E580093133E00B801C301CE01D901E40121007A
:100E68000C082000C500C70121000D082000C7009C
:100E78002100131120000800F001750879020319F8
:100E8800F00908006108F5006208F6000B30F90067
:100E9800FA018B31192387317008DA003808F50018
:100EA8000530F9004027F0095A087005D600561C8D
:100EB800792F8B31C0238731CE1F712F0530A100C8
:100EC8000830DC008831002087310130A10007306C
:100ED800DC00883100208731782F0130A1001430E0
:100EE800DC00883100208731FC2F6108F50062089A
:100EF800F6000930F900FA018B311923873170089F
:100F0800DA003808F5000530F90040275A0870055E
:100F1800D600561CAB2F8B31C0238731CE1FA32F91
:100F28000530A1000430DC00883100208731013011
:100F3800A1000730DC00883100208731AA2F01305A
:100F4800A1001430DC00883100208731FC2F6108B3
:100F5800F9006208FA000F30F500F6018B31192309
:100F680087317008DA003808F5000530F9004027A5
:100F7800F0097008D6005A085605D8006108F9002B
:100F88006208FA000D30F500F6018B31192387311C
:100F98007008DA003808F5000530F90040277008B5
:100FA800D6005A085605DB0058085B04DA005A1CBC
:100FB800F92F8B31EB2387314F1CF12F0630A1001D
:100FC8000930DC008831002087310130A1000D3064
:100FD800DC00883100208731F82F0130A10014305F
:100FE800DC00883100208731FC2F8831EC208731E4
:020FF8000800EF
:1010000041084202031D08283F08AB004008AC001D
:10101000E93041078400D6012330563D8500210880
:101020008000E23041078400D6012330563D850020
:101030005C0880004108F5000630F9002823700A9A
:10104000C1000800B70A3808F5000630F9008731FA
:10105000402788317008DA003708F5000230F900BF
:101060008731402788315A087005DB005B1C49280E
:101070008A200730A1000A30DC0000200530A100E2
:101080000830DC0000200130A1005F30DC000020CF
:101090007E288A200130A1000F30DC0000200730BC
:1010A000A1000A30DC0000200430A1001E30DC006A
:1010B00000200730A1000A30DC0000203808F500CD
:1010C0000630F9008731402788317008DA00370888
:1010D000F5000130F9008731402788315A08700542
:1010E000DB005B1C79280130A1004E30DC000020C1
:1010F0007E280130A1004B30DC000020AA01B9019C
:10110000BA01FF30BD00BE00080099111915191071
:10111000991408004208C100080017100130AF0000
:101120000A210430F200F301A3208030AF000A212D
:101130000C30F5009B281930F000F00B9D280000C2
:10114000F50B9B280800F30A0E30F100BD30F000CB
:10115000F00BA828F10BA628F20BA428F30BA42867
:101160000800E830F2000330F300A320F40BB128AC
:1011700008002408F5002508F6003B08F9003C08A3
:10118000FA001923701CCA284E172408BB00250832
:10119000BC00EB282408F5002508F6000A30F90009
:1011A000FA013C237508D6007608D70056082402B9
:1011B000D8005708253BD9005808F9005908FA000B
:1011C0003B08F5003C08F6001923F009701CEA28DA
:1011D0004E17EB284E130800991519111914991080
:1011E000080099151915191499140800F0301F05F5
:1011F000DA00DF0460030319FF28DE160029DE127F
:101200005F089F00E0301E05DA00DE045E125E0813
:101210009E0008005E21B20803190A2997101212D5
:101220009212121392131712971217139713AF1BE0
:1012300097172F1B1717AF1A97162F1A171602306A
:10124000F000F00B2129000017150530F000F00B1D
:10125000272917110530F000F00B2C2917129712CF
:1012600017139713AF1997172F191717AF1897164A
:101270002F1817160230F000F00B3C29000017154C
:101280000530F000F00B422917110530F000F00B8B
:10129000472997131713971217125530F000F00BC8
:1012A0004F290D185D2910302F0203185D292F08D2
:1012B000073C03185D292F08B6000800B201511140
:1012C0000D18511597140530F5009B2017100530A7
:1012D000F5009B2017150530F5009B2092178D1BFC
:1012E0007329FF30B20017111930F5009B20171039
:1012F00051191714080017103108013C03188429EC
:101300000230B1021030B0073108F5004030F9006A
:10131000702330087007DA0080305A04AF000A21C9
:101320000530F5009B280330A0008431F924893171
:101330004408E300E40103306302D6000030643B5C
:10134000D7008330F5001A30F6005608F900570828
:10135000FA003C237508D8007608D90004305802FA
:10136000D6000030593BD7005608F5005708F60064
:101370000530F900FA013C237508E1007608E20027
:101380000430A0008431F92489314408E700E801E1
:1013900003306702D6000030683BD7008330F50089
:1013A0001A30F6005608F9005708FA003C23750871
:1013B000D8007608D90004305802D6000030593BD6
:1013C000D7005608F5005708F6000530F900FA0175
:1013D0003C237508E5007608E6000230A00086315F
:1013E0001A2689314508A4004708A50008005208BC
:1013F0008400530885000008C300C30803190800CF
:101400001714D40101304302031C142AD40A5408CF
:10141000520784000030533D85000008AF000A21C8
:1014200043085402031C062A0800B501171464304F
:101430003302031C282A3308F5006430F9002823FE
:101440007508B5007008B30030303507AF000A21C9
:101450003508F900F50112237008DA003308F500A9
:101460000A30F9001223F0095A087004DB005B1CF3
:10147000462A3308F5000A30F90028237508B5001C
:101480007008B30030303507AF000A213030330721
:10149000AF000A291714B5013308F5003408F60027
:1014A0001030F9002730FA001923F009701C6C2A5B
:1014B0003308F5003408F6001030F9002730FA0040
:1014C0003C237508B5007008B3007108B4003030D3
:1014D0003507AF000A21782A3308F5003408F600F2
:1014E000E830F9000330FA001923F009701C8C2A47
:1014F0003308F5003408F600E830F9000330FA004C
:101500003C237508B5007008B3007108B400303092
:101510003507AF000A21972A3308F5003408F60092
:101520006430F900FA011923F009701CAA2A330863
:10153000F5003408F6006430F900FA013C23750820
:10154000B5007008B3007108B40030303507AF0043
:101550000A21B52A3308F5003408F6000A30F900EC
:10156000FA011923F009701CC72A3308F500340862
:10157000F6000A30F900FA013C237508B50070083E
:10158000B3007108B40030303507AF000A213030A5
:101590003307AF000A29991519111910991008007D
:1015A00099111911191499100800DD0803199E17D3
:1015B0005D03031DDD2A24000E14023020005D02AD
:1015C000031DE42A25008E17033020005D02031D51
:1015D000EB2A24001414043020005D02031DF22ABB
:1015E00025009417053020005D02031DF92A240010
:1015F0001A14063020005D02031D002B25009A17E7
:101600002000080099111911191099100800F00113
:1016100075087902031D080076087A02031D080088
:10162000F0090800F001031479087502031CF009A1
:101630000800F00176087A02031C08007A08760296
:10164000031C262B7908750203180800F00908000E
:10165000F90803190800F0010830F4000310F50D33
:10166000F00D7908F00275140318392B75107908FC
:10167000F007F40B2E2B08007508F7007608F80029
:101680007908FB007A08FC00F201F3017B08F50001
:101690007C08F600F901FA010723701C522BF501B2
:1016A000F60108001030F4000310F70DF80DF20DEC
:1016B000F30D7B08F2027C08F33B77140318652BCB
:1016C00077107B08F2077C08F33DF40B542B770866
:1016D000F5007808F6007208F0007308F1000800C1
:1016E000F00175087918F0070310F90C0310F50DD7
:1016F000F908031D712B080078088A007708F70A9B
:101700000319F80A82000D344534583454344934EE
:101710004E344734553449345334483449344E34C4
:101720004734013420340634453464346734693432
:101730006E34673411342334313420345634493410
:10174000433454344F3452345934203452344F34A7
:10175000593441344C34453401344C34013446342A
:1017600001345434BF0A0319C00A0800991519112D
:1017700019109914080099111915191499100800D5
:101780006308F9006408FA003908F5003A08F60021
:101790001923701CD12BCE176308B9006408BA0056
:1017A000EA2B02306307D6000030643DD7005608AC
:1017B000F5005708F6003908F9003A08FA0019232D
:1017C000F009701CE52BCE17EA2BCE136308B90085
:1017D0006408BA0008006308F5006408F6003D08D4
:1017E000F9003E08FA001923701CFC2B4F14630803
:1017F000BD006408BE000F2C6308F9006408FA00FD
:101800003D08F5003E08F6001923F009701C0A2C6B
:101810004F140F2C4F106308BD006408BE00080071
:020000040001F9
:0A000E008C3FFE3F9F3FFF1FFF3FA6
:00000001FF
