:020000040000FA
:040000008031222801
:10000800FE00030EFF0008082000C1000A08BE0019
:100018008A012E00961E17288C1E17282000B2274A
:100028002E008C12172820003E088A0041088800FC
:0A0038007F0E8300FE0E7E0E09000D
:100044000423A5228B170B17941114111410941068
:10005400911411159115111691121210921012117A
:100064001212921212139213B601B7010130D0008A
:100074008030CF000130CE001F231E12A0309D001F
:100084009C01CD01D3262E0096162000991119113A
:10009400191099100130A100A301A4010530A20098
:1000A400A501A601BC01BD01B3014014C014A901FE
:1000B400AA01B401B50140108C184014F001401C91
:1000C400F0097008C700F001C018F009470870056E
:1000D400C900491C8528B30A3308C700471C852872
:1000E400A022EE30F2000230F3008A220330A10095
:1000F40032303607A3000030373DA4000130A2009F
:100104006430A500A601C0104018C0140330A0003C
:1001140090243908D300D40103305302C7000030BF
:10012400543BC8008330F5001A30F6004708F90044
:100134004808FA0040277508C9007608CA00043048
:100144004902C70000304A3BC8004708F500480888
:10015400F6000530F900FA0140277508D100760849
:10016400D2000430A00090243908D700D80103300D
:100174005702C7000030583BC8008330F5001A30DE
:10018400F6004708F9004808FA0040277508C90036
:100194007608CA0004304902C70000304A3BC80050
:1001A4004708F5004808F6000530F900FA01402731
:1001B4007508D5007608D6000230A000AF253A08AD
:1001C400A7003B08A8003C08F5003D08F6003608E7
:1001D400F9003708FA001D27701C2C297422AD0180
:1001E400AC01A4238730C3008730C400BC23330888
:1001F400AF00DA238A30C3008730C400BC2351081F
:10020400AF005208B0000F248A30C3008730C40006
:10021400BC235508AF005608B0000F240130AD00D0
:10022400AC01A4238C30C3008730C400BC2327084E
:10023400AF002808B0000F248F30C3008730C400FB
:10024400BC232108AF00DA230A303607BC00003093
:10025400373DBD002308F5002408F6003608F900F0
:100264003708FA001D277008C7002208F50005307A
:10027400F900052747087005C900491CB72951082A
:10028400F9005208FA002830F500F6011D27701C09
:1002940059290430A10023303607A3000030373D2C
:1002A400A4000130A2003C30A500A601B6295508DF
:1002B400F5005608F6001630F900FA011D27701CE7
:1002C4006C290330A1000A303607A3000030373D03
:1002D400A400B6295108F5005208F6000530F900CB
:1002E400FA011D27701C93290330A10051080E3C0C
:1002F400C700C9015208493BC8004708F50048082F
:10030400F6000330F900FA01402775083607A30008
:100314007608373DA4000130A2001E30A500A601D6
:10032400B6295108F9005208FA001430F500F60114
:100334001D27701CB4290430A1005108F50052088F
:10034400F6000330F900FA01402775083607A300C8
:100354007608373DA4000130A2005108A5005208D8
:10036400A600B6290130A100D7292308F5002408E6
:10037400F6003608F9003708FA001D277008C70090
:100384002208F5000530F9000527F0094708700533
:10039400C900491CD7292208A10025083607A30053
:1003A4002608373DA4000530A20003302102031DB6
:1003B400DD29BB27E62904302102031DE329B627E2
:1003C400E62921030319A0222708F5002808F600CE
:1003D4001430F900FA011D277008C7005508F5000C
:1003E4005608F6001E30F900FA011D27470870056B
:1003F400C900491C532A96167422AD01AC01A423EA
:100404009230C3008730C400BC230130AD00AC017E
:10041400A4232708AF002808B0000F242708F900F8
:100424002808FA002030F5000330F6001D27701864
:100434003F2ABB276430F200F3018A22B6276430D6
:10044400F200F3018A220230A000AF253A08A70087
:100454003B08A8007422AD01AC01A4239230C30070
:100464008730C400BC230130AD00AC01A4232708AD
:10047400AF002808B0000F24102A0330F40098229B
:1004840096127422AD01AC01A423A030C3008730BE
:10049400C400BC23BB270130F40098220027722A31
:1004A400712A2708F5002808F600F430F900013015
:1004B400FA001D277008C7003305C900C700471C90
:1004C400702A2708B4002808B5002708A9002808BE
:1004D400AA003608A3003708A400712A96125D28E2
:1004E4006300722A17100130AB0033230430F2008A
:1004F400F3018A228030AB0033230C30F500822ACA
:100504001930F000F00B842A0000F50B822A080051
:10051400F30A0E30F100BD30F000F00B8F2AF10B1E
:100524008D2AF20B8B2AF30B8B2A0800E830F20099
:100534000330F3008A22F40B982A08009915191144
:100544001914991008001210121192100A30F200B6
:10055400F3018A228723AE080319AC2A171012125A
:1005640092121213921397100F30F200F3018A22A1
:1005740017169716171397130530F000F00BC02ABF
:1005840017150530F000F00BC52A17110530F200DD
:10059400F3018A220330C60017150530F000F00B72
:1005A400D12A17110230F100F001F00BD72AF10B18
:1005B400D62A1330F000F00BDD2AC60BCE2A053004
:1005C400F200F3018A2217129716171397130530B6
:1005D400F000F00BEB2A17150530F000F00BF02AB1
:1005E40017118530F000F00BF52A2830AB003323C7
:1005F4000630AB0033230C30AB00332374220C30B1
:10060400B2000800603031008D008F019101920129
:10061400063093002100131193133E00B801C30167
:10062400CE01D901E40133009413901320008C010E
:100634008D018E018F0190010800F0301F05C70065
:10064400CF0450030319282BCE16292BCE124F08A2
:100654009F00E0301E05C700CE044E124E089E00D7
:1006640008008723AE080319332B97101212921235
:10067400121392131712971217139713AB1B971792
:100684002B1B1717AB1A97162B1A17160230F000EC
:10069400F00B4A2B000017150530F000F00B502B1F
:1006A40017110530F000F00B552B17129712171382
:1006B4009713AB1997172B191717AB1897162B18F5
:1006C40017160230F000F00B652B000017150530EB
:1006D400F000F00B6B2B17110530F000F00B702BB2
:1006E40097131713971217125530F000F00B782B4D
:1006F4000D18862B10302B020318862B2B08073C71
:100704000318862B2B08B2000800AE0142110D1805
:10071400421597140530F500822217100530F500B4
:10072400822217150530F500822292178D1B9C2B0F
:10073400FF30AE0017111930F5008222171042194C
:100744001714080017102D08013C0318AD2B0230B4
:10075400AD021030AC072D08F5004030F9007427C5
:100764002C087007C70080304704AB0033230530E2
:10077400F500822A43088400440885000008B80074
:10078400B808031908001714C50101303802031C06
:10079400D92BC50A4508430784000030443D850031
:1007A4000008AB00332338084502031CCB2B080098
:1007B400B101171464302F02031CED2B2F08F50030
:1007C4006430F9002C277508B1007008AF00303090
:1007D4003107AB0033233108F900F50116277008FF
:1007E400C7002F08F5000A30F9001627F00947085A
:1007F4007004C900491C0B2C2F08F5000A30F900BD
:100804002C277508B1007008AF0030303107AB00F9
:10081400332330302F07AB00332B1714B1012F08CB
:10082400F5003008F6001030F9002730FA001D27D3
:10083400F009701C312C2F08F5003008F600103038
:10084400F9002730FA0040277508B1007008AF009E
:100854007108B00030303107AB0033233D2C2F0832
:10086400F5003008F600E830F9000330FA001D27DF
:10087400F009701C512C2F08F5003008F600E83000
:10088400F9000330FA0040277508B1007008AF0082
:100894007108B00030303107AB0033235C2C2F08D3
:1008A400F5003008F6006430F900FA011D27F0095C
:1008B400701C6F2C2F08F5003008F6006430F90026
:1008C400FA0140277508B1007008AF007108B00044
:1008D40030303107AB0033237A2C2F08F500300871
:1008E400F6000A30F900FA011D27F009701C8C2C5F
:1008F4002F08F5003008F6000A30F900FA01402705
:100904007508B1007008AF007108B00030303107CD
:10091400AB00332330302F07AB00332B21001311EE
:100924002000200821009E002000A008031D9D2C0B
:100934003E003814892D2003031DA32C3E00B81457
:10094400892D02302002031DAA2C3E003815892D62
:1009540003302002031DB12C3E00B815892D04304C
:100964002002031DB82C3E003816892D05302002C4
:10097400031DBF2C3E00B816892D06302002031D2E
:10098400C62C3E003817892D07302002031DCD2CBC
:100994003E00B817892D08302002031DD42C3E00D8
:1009A4004314892D09302002031DDB2C3E00C3149F
:1009B400892D0A302002031DE22C3E004315892DA7
:1009C4000B302002031DE92C3E00C315892D0C3089
:1009D4002002031DF02C3E004316892D0D30200209
:1009E400031DF72C3E00C316892D0E302002031D73
:1009F400FE2C3E004317892D0F302002031D052DC8
:100A04003E00C317892D10302002031D0C2D3E001B
:100A14004E14892D11302002031D132D3E00CE14D7
:100A2400892D12302002031D1A2D3E004E15892DEA
:100A340013302002031D212D3E00CE15892D1430C4
:100A44002002031D282D3E004E16892D153020024C
:100A5400031D2F2D3E00CE16892D16302002031DB6
:100A6400362D3E004E17892D17302002031D3D2DD3
:100A74003E00CE17892D18302002031D442D3E0060
:100A84005914892D19302002031D4B2D3E00D91411
:100A9400892D1A302002031D522D3E005915892D2F
:100AA4001B302002031D592D3E00D915892D1C3001
:100AB4002002031D602D3E005916892D1D30200291
:100AC400031D672D3E00D916892D1E302002031DFB
:100AD4006E2D3E005917892D1F302002031D752DE0
:100AE4003E00D917892D20302002031D7C2D3E00A5
:100AF4006414892D21302002031D832D3E00E4144B
:100B0400892D22302002031D892D3E006415210009
:100B140013120130980013120F309800131113119F
:100B24002000200821009E0093170230F5002000C9
:100B3400822221001314000013189E2D93133E00EB
:100B4400B801C301CE01D901E40121000D08200040
:100B5400B900210013112000080021001315200002
:100B6400200821009E002000A008031DBC2D3E008B
:100B74003814A82E2003031DC22D3E00B814A82E3D
:100B840002302002031DC92D3E003815A82E033063
:100B94002002031DD02D3E00B815A82E04302002DB
:100BA400031DD72D3E003816A82E05302002031D44
:100BB400DE2D3E00B816A82E06302002031DE52DBA
:100BC4003E003817A82E07302002031DEC2D3E00EE
:100BD400B817A82E08302002031DF32D3E0043143D
:100BE400A82E09302002031DFA2D3E00C314A82E9E
:100BF4000A302002031D012E3E004315A82E0B309F
:100C04002002031D082E3E00C315A82E0C3020021E
:100C1400031D0F2E3E004316A82E0D302002031D87
:100C2400162E3E00C316A82E0E302002031D1D2EC4
:100C34003E004317A82E0F302002031D242E3E0031
:100C4400C317A82E10302002031D2B2E3E004E1475
:100C5400A82E11302002031D322E3E00CE14A82EE1
:100C640012302002031D392E3E004E15A82E1330DB
:100C74002002031D402E3E00CE15A82E1430200263
:100C8400031D472E3E004E16A82E15302002031DCC
:100C94004E2E3E00CE16A82E16302002031D552ED1
:100CA4003E004E17A82E17302002031D5C2E3E0076
:100CB400CE17A82E18302002031D632E3E005914AF
:100CC400A82E19302002031D6A2E3E00D914A82E26
:100CD4001A302002031D712E3E005915A82E1B3018
:100CE4002002031D782E3E00D915A82E1C302002A8
:100CF400031D7F2E3E005916A82E1D302002031D11
:100D0400862E3E00D916A82E1E302002031D8D2EDD
:100D14003E005917A82E1F302002031D942E3E00BA
:100D2400D917A82E20302002031D9B2E3E006414E8
:100D3400A82E21302002031DA22E3E00E414A82E6A
:100D440022302002031DA82E3E0064152100131238
:100D54000130980013120F3098001315131520005A
:100D6400200821009E0093170230F5002000822203
:100D74002100131400001318BD2E93133E00B80174
:100D8400C301CE01D901E40121000C082000BA00FE
:100D9400BB0121000D082000BB002100131120001D
:100DA4000800CD0803199E174D03031DDB2E2400F4
:100DB4000E14023020004D02031DE22E25008E1772
:100DC400033020004D02031DE92E240014140430C6
:100DD40020004D02031DF02E25009417053020003D
:100DE4004D02031DF72E24001A14063020004D0274
:100DF400031DFE2E25009A172000080099111911D1
:100E0400191099100800F001750879020319F00906
:100E14000800F00175087902031D080076087A02BB
:100E2400031D0800F0090800F00103147908750295
:100E3400031CF0090800F00176087A02031C08007C
:100E44007A087602031C2A2F790875020318080011
:100E5400F0090800F90803190800F0010830F4004B
:100E64000310F50DF00D7908F002751403183D2FE9
:100E740075107908F007F40B322F08007508F70095
:100E84007608F8007908FB007A08FC00F201F30107
:100E94007B08F5007C08F600F901FA010B27701CA9
:100EA400562FF501F60108001030F4000310F70D79
:100EB400F80DF20DF30D7B08F2027C08F33B771476
:100EC4000318692F77107B08F2077C08F33DF40BB5
:100ED400582F7708F5007808F6007208F0007308B8
:100EE400F1000800F00175087918F0070310F90CF7
:100EF4000310F50DF908031D752F080078088A0002
:100F04007708F70A0319F80A820002344C342034B3
:100F1400013420340234463420340234443420343E
:100F24000D3445345834543449344E3447345534EC
:100F340049345334483449344E3447341134233417
:100F44003134203456344934433454344F345234D5
:100F54005934203452344F34593441344C344534A8
:100F6400B60A0319B70A080099151911191099142A
:0C0F7400080099111915191499100800B3
:020000040001F9
:0A000E008C3FFE3F9F3FFF1FFF3FA6
:00000001FF
