:020000040000FA
:0400000080312428FF
:10000800FE00030EFF0008082000C9000A08C4000B
:100018008A012E00961E19288C1E192820008A3164
:10002800412280312E008C121928200044088A00B1
:0E003800490888007F0E8300FE0E7E0E090030
:10004800BF224F228B170B17941114111410941000
:100058009114111591151116911212109210121176
:100068001212921212139213B901BA010130D80078
:100078008030D7000130D6008831712080311E12BF
:10008800A0309D009C01D50189316B2180312E0063
:10009800961620009911191119109910C201C3015F
:1000A800B4014814C814AA01AB01FF30B500B6006A
:1000B8004811C501C601A201A301A601A60AEA309A
:1000C80026078400CF0123304F3D85008001E430AE
:1000D80026078400CF0123304F3D8500800105307D
:1000E8002602031C62280130BC000130BB00A801B5
:1000F800A901C8154812B701B801A7010A30F200D2
:10010800F30188311E20803148108C184814F00102
:10011800481CF0097008CF00F001C818F0094F0812
:100128007005D100511CA428B40A3408CF004F1C14
:10013800A428C8114B303907C50000303A3DC60025
:10014800C8104818C814DA224208F5004308F60017
:100158003908F9003A08FA008931B5218031701C54
:10016800BD28782480310A303907C20000303A3D72
:10017800C3003B083C0203196D275908F9005A08C7
:10018800FA002830F500F6018931B5218031701C5C
:10019800E5288831052080310130A1000A30D400DB
:1001A80039210730A1000530D40039210430A100DD
:1001B8002830D40039210130A1003C30D400392145
:1001C8000D295D08F5005E08F6001430F900FA0103
:1001D8008931B5218031701C0D2988310520803185
:1001E8000130A1000A30D40039210130A1000A30C1
:1001F800D40039210730A1000530D400392103305B
:10020800A1002830D40039210130A1003C30D400AD
:1002180039213B083C020319132940231629883148
:10022800672081312408F5002508F6001930F90007
:10023800FA018931B52181317008CF005D08F500D8
:100248005E08F6001430F900FA018931B5218131D0
:100258004F087005D100511C35295D21813137299E
:10026800362996128828630037293B083C02031D6B
:1002780041293908A8003A08A900EA303B07840058
:10028800CF0123304F3D850021088000E4303B0733
:100298008400CF0123304F3D8500540880003B087F
:1002A800F5000530F9008931C4218131700ABB009D
:1002B80008009616883108208131AE01AD018831D9
:1002C800F62081311F30CB008A30CC0089310E21D5
:1002D80081310130AE00AD018831F620813124082A
:1002E800B0002508B100DE238131EA303C078400E4
:1002F800D1012330513D8500033080002408B5002A
:100308002508B6003908F9003A08FA002208F5006D
:100318002308F6008931B52181317008D1002408FD
:10032800F9002508FA002030F5000330F60089317D
:10033800B521813151087005D3005318342A023091
:10034800A00047263F08A4004108A50088313420B2
:100358008131C81EC229EA303C078400D10123300C
:10036800513D850003300002031DBE298A314A220F
:100378008131C1298A3145228131EA29EA303C0795
:100388008400D1012330513D850003300002031D54
:10039800DA298A3145228131EA303C078400D101CB
:1003A8002330513D850004308000E6298A314A22F5
:1003B8008131EA303C078400D1012330513D85006A
:1003C800033080002408B5002508B60088310820CD
:1003D8008131AE01AD018831F62081311F30CB006B
:1003E8008A30CC0089310E2181310130AE00AD0157
:1003F8008831F62081312408B0002508B100DE23B9
:1004080082312408F9002508FA002030F50003306D
:10041800F6008931B52182317008D1002208F50033
:100428002308F600F901FA018931A3218231510824
:100438007005D300531C262A2C303907A20001303E
:100448003A3DA3001430F200F30188311E208931AF
:10045800982182310130F40088312C20823186299C
:100468009612883108208231AE01AD018831F6201C
:1004780082312D30CB008A30CC0089310E218A316F
:100488004A228231F430F2000130F30088311E2014
:100498008231893198291210121192100A30F20013
:1004A800F30188311E2082318831D9208231AF088A
:1004B8000319582A17101212921212139213971036
:1004C8000F30F200F30188311E208231171697167B
:1004D800171397130530F000F00B702A1715053025
:1004E800F000F00B752A17110530F200F30188317E
:1004F8001E2082310330CE0017150530F000F00BB6
:10050800832A17110230F100F001F00B892AF10B50
:10051800882A1330F000F00B8F2ACE0B802A053082
:10052800F200F30188311E20823117129716171333
:1005380097130530F000F00B9F2A17150530F000CF
:10054800F00BA42A17118530F000F00BA92A2830E7
:10055800AC008831852082310630AC008831852096
:1005680082310C30AC0088318520883108208231F6
:100578000C30B3000800603031008D008F0191010C
:100588009201063093002100131193133E00B80125
:10059800C301CE01D901E401330094139013200064
:1005A8008C018D018E018F01900108000330A0009D
:1005B80026253E08DB00DC0103305B02CF0000305B
:1005C8005C3BD0008330F5001A30F6004F08F90084
:1005D8005008FA008931D82182317508D10076088F
:1005E800D20004305102CF000030523BD0004F08F7
:1005F800F5005008F6000530F900FA018931D821D4
:1006080083317508D9007608DA000430A000262561
:100618003E08DF00E00103305F02CF000030603B9E
:10062800D0008330F5001A30F6004F08F900500862
:10063800FA008931D82183317508D1007608D200B3
:1006480004305102CF000030523BD0004F08F50073
:100658005008F6000530F900FA018931D8218331B4
:100668007508DD007608DE000230A00047263F0846
:10067800A4004108A5000800E4303C078400D1012B
:100688002330513D850028080007CF00D1012908F3
:10069800513DD0004F08F5005008F6003908F90020
:1006A8003A08FA008931B5218331701C692B3C085E
:1006B800F5000530F9008931C4218331700ABC0086
:1006C8003908A8003A08A900DD2BEA303C07840065
:1006D800D1012330513D85008008031D7E2B8931CF
:1006E80098218331EA303C078400D1012330513D01
:1006F8008500DD2B0003031D8C2B88316720833197
:10070800EA303C078400D1012330513D8500DD2BC0
:100718000003031D9A2B883100208331EA303C07FF
:100728008400D1012330513D8500DD2B03300002C8
:10073800031DA92B8A314A228331EA303C07840001
:10074800D1012330513D8500DD2B04300002031D0B
:10075800B82B8A3145228331EA303C078400D10125
:100768002330513D8500DD2B05300002031DC72BCA
:10077800893166218331EA303C078400D101233076
:10078800513D8500DD2B06300002031DD62B893133
:1007980061218331EA303C078400D1012330513D87
:1007A8008500DD2B07300002031DDD2B88316C200E
:1007B800833108001714B2013008F5003108F6003B
:1007C8001030F9002730FA008931B5218331F0095A
:1007D800701C062C3008F5003108F6001030F900BE
:1007E8002730FA008931D82183317508B2007008A2
:1007F800B0007108B10030303207AC008831852074
:100808008431142C3008F5003108F600E830F9007E
:100818000330FA008931B5218431F009701C2C2C81
:100828003008F5003108F600E830F9000330FA0026
:100838008931D82184317508B2007008B000710878
:10084800B10030303207AC00883185208431392C32
:100858003008F5003108F6006430F900FA018931F2
:10086800B5218431F009701C502C3008F50031088E
:10087800F6006430F900FA018931D821843175080D
:10088800B2007008B0007108B10030303207AC0017
:100898008831852084315D2C3008F5003108F60058
:1008A8000A30F900FA018931B5218431F009701C48
:1008B800732C3008F5003108F6000A30F900FA0107
:1008C8008931D82184317508B2007008B0007108E8
:1008D800B10030303207AC008831852084313030A7
:1008E8003007AC0088318528883108208431AE0172
:1008F800AD018831F62084313B083C020318C22C34
:10090800A6013C083B02D3000130F9005308F5006A
:100918008931AE2184317018C12CA60A26083C07FB
:10092800D30002305302CF00F5000530F9008931B9
:10093800C42184317008D300530ACF00EA304F072E
:100948008400D3012330533D85000008B00089316D
:100958002C2184313F30CB008A30CC0089310E21E4
:1009680084313C083B02D3002608F5005308F900FF
:100978008931AE2184317018912C072D3C083B0237
:100988000318072DA6013B083C02D300053CCF0005
:100998000130F9004F08F5008931AE218431701813
:1009A800072DA60A26083C07D30002305302CF00C1
:1009B800F5000530F9008931C42184317008D3006D
:1009C800530ACF00EA304F078400D3012330533D48
:1009D80085000008B00089312C2184313F30CB00DC
:1009E8008A30CC0089310E2184313B083C02D30087
:1009F800053CCF002608F5004F08F9008931AE21E3
:100A080085317018D52C0130AE00AD018831F62043
:100A180085313F30CB008A30CC0089310E218531B9
:100A28005B08B0005C08B100DE2385313F30CB00A5
:100A38008A30CC0089310E2185315F08B00060080A
:100A4800B100DE2B210013112000200821009E0098
:100A58002000A008031D332D3E0038141F2E20034C
:100A6800031D392D3E00B8141F2E02302002031D2D
:100A7800402D3E0038151F2E03302002031D472D40
:100A88003E00B8151F2E04302002031D4E2D3E00D7
:100A980038161F2E05302002031D552D3E00B816AE
:100AA8001F2E06302002031D5C2D3E0038171F2E16
:100AB80007302002031D632D3E00B8171F2E083093
:100AC8002002031D6A2D3E0043141F2E0930200208
:100AD800031D712D3E00C3141F2E0A302002031D72
:100AE800782D3E0043151F2E0B302002031D7F2D4D
:100AF8003E00C3151F2E0C302002031D862D3E001C
:100B080043161F2E0D302002031D8D2D3E00C316E7
:100B18001F2E0E302002031D942D3E0043171F2E5A
:100B28000F302002031D9B2D3E00C3171F2E1030CF
:100B38002002031DA22D3E004E141F2E113020024C
:100B4800031DA92D3E00CE141F2E12302002031DB6
:100B5800B02D3E004E151F2E13302002031DB72D59
:100B68003E00CE151F2E14302002031DBE2D3E0060
:100B78004E161F2E15302002031DC52D3E00CE1621
:100B88001F2E16302002031DCC2D3E004E171F2E9F
:100B980017302002031DD32D3E00CE171F2E18300C
:100BA8002002031DDA2D3E0059141F2E1930200291
:100BB800031DE12D3E00D9141F2E1A302002031DFB
:100BC800E82D3E0059151F2E1B302002031DEF2D66
:100BD8003E00D9151F2E1C302002031DF62D3E00A5
:100BE80059161F2E1D302002031DFD2D3E00D9165B
:100BF8001F2E1E302002031D042E3E0059171F2EE3
:100C08001F302002031D0B2E3E00D9171F2E203047
:100C18002002031D122E3E0064141F2E21302002D4
:100C2800031D192E3E00E4141F2E22302002031D3E
:100C38001F2E3E0064152100131201309800131274
:100C48000F309800131113112000200821009E0076
:100C580093170230F50020008831162086312100D4
:100C6800131400001318362E93133E00B801C30165
:100C7800CE01D901E40121000D082000BE002100A9
:100C8800131120000800210013152000200821005E
:100C98009E002000A008031D542E3E003814402F4B
:100CA8002003031D5A2E3E00B814402F02302002A4
:100CB800031D612E3E003815402F03302002031D0E
:100CC800682E3E00B815402F04302002031D6F2EF9
:100CD8003E003816402F05302002031D762E3E00B8
:100CE800B816402F06302002031D7D2E3E0038170F
:100CF800402F07302002031D842E3E00B817402FD6
:100D080008302002031D8B2E3E004314402F09306B
:100D18002002031D922E3E00C314402F0A302002E9
:100D2800031D992E3E004315402F0B302002031D52
:100D3800A02E3E00C315402F0C302002031DA72E05
:100D48003E004316402F0D302002031DAE2E3E00FC
:100D5800C316402F0E302002031DB52E3E00431748
:100D6800402F0F302002031DBC2E3E00C317402F1A
:100D780010302002031DC32E3E004E14402F1130A8
:100D88002002031DCA2E3E00CE14402F123020022E
:100D9800031DD12E3E004E15402F13302002031D97
:100DA800D82E3E00CE15402F14302002031DDF2E12
:100DB8003E004E16402F15302002031DE62E3E0041
:100DC800CE16402F16302002031DED2E3E004E1782
:100DD800402F17302002031DF42E3E00CE17402F5F
:100DE80018302002031DFB2E3E005914402F1930E5
:100DF8002002031D022F3E00D914402F1A30200272
:100E0800031D092F3E005915402F1B302002031DDA
:100E1800102F3E00D915402F1C302002031D172F1C
:100E28003E005916402F1D302002031D1E2F3E0084
:100E3800D916402F1E302002031D252F3E005917BA
:100E4800402F1F302002031D2C2F3E00D917402FA2
:100E580020302002031D332F3E006414402F213020
:100E68002002031D3A2F3E00E414402F22302002B6
:100E7800031D402F3E006415210013120130980015
:100E880013120F30980013151315200020082100A5
:100E98009E0093170230F500200088311620873114
:100EA8002100131400001318572F93133E00B801A4
:100EB800C301CE01D901E40121000C082000BF00C4
:100EC800C10121000D082000C100210013112000DC
:100ED80008005908F5005A08F6000930F900FA0127
:100EE8008931B52187317008D3002708F500023011
:100EF800F90089319D218731F00953087005CF0029
:100F08004F1C9B2F8A314F228731481F912F053064
:100F1800A1000A30D40039219A2F0230A700B70166
:100F2800B8010130A1001430D4003921E92F590843
:100F3800F9005A08FA000F30F500F6018931B52199
:100F480087317008D3002708F5000130F90089318E
:100F58009D218731F00953087005CF004F1CC92F18
:100F68008A314F228731481FBF2F0630A1000A302F
:100F7800D4003921C82F0130A700B701B8010130CA
:100F8800A1001430D4003921E92F5908F9005A0872
:100F9800FA000F30F500F6018931B5218731F009E3
:100FA8007008D3005908F5005A08F6000930F9000E
:100FB800FA018931B5218731F00953087005CF004E
:0C0FC8004F18A70188316720873108000E
:10100000991119151910991408003C08BB00080023
:1010100017100130AC0085200430F200F3011E20CF
:101020008030AC0085200C30F50016281930F00017
:10103000F00B18280000F50B16280800F30A0E30F4
:10104000F100BD30F000F00B2328F10B2128F20B4A
:101050001F28F30B1F280800E830F2000330F300CC
:101060001E20F40B2C2808002408F5002508F600A3
:101070003508F9003608FA00B521701C4528C81655
:101080002408B5002508B60066282408F5002508C0
:10109000F6000A30F900FA01D8217508CF00760869
:1010A000D0004F082407D1005008253DD200510838
:1010B000F9005208FA003508F5003608F600B521A7
:1010C000F009701C6528C8166628C8120800991512
:1010D0001911191499100800991519151914991452
:1010E0000800F0301F05D300D704580303197A28ED
:1010F000D6167B28D61257089F00E0301E05D30075
:10110000D604561256089E000800D920AF080319CD
:101110008528971012129212121392131712971217
:1011200017139713AC1B97172C1B1717AC1A97168E
:101130002C1A17160230F000F00B9C28000017152F
:101140000530F000F00BA22817110530F000F00B6D
:10115000A7281712971217139713AC1997172C1962
:101160001717AC1897162C1817160230F000F00B52
:10117000B728000017150530F000F00BBD28171137
:101180000530F000F00BC2289713171397121712AF
:101190005530F000F00BCA280D18D82810302C025A
:1011A0000318D8282C08073C0318D8282C08B300AB
:1011B0000800AF014A110D184A1597140530F500C3
:1011C000162017100530F500162017150530F5000C
:1011D000162092178D1BEE28FF30AF001711193023
:1011E000F500162017104A191714080017102E08BA
:1011F000013C0318FF280230AE021030AD072E0864
:10120000F5004030F9000C222D087007D300803023
:101210005304AC0085200530F50016284B088400E7
:101220004C0885000008BD00BD080319080017140C
:10123000CD0101303D02031C2B29CD0A4D084B077F
:10124000840000304C3D85000008AC0085203D083E
:101250004D02031C1D290800B2011714643030022E
:10126000031C3F293008F5006430F900C4217508DB
:10127000B2007008B00030303207AC008520320870
:10128000F900F501AE217008D3003008F5000A30EE
:10129000F900AE21F00953087004CF004F1C5D29FE
:1012A0003008F5000A30F900C4217508B200700852
:1012B000B00030303207AC00852030303007AC0051
:1012C00085289915191119109910080099111911EB
:1012D000191499100800D50803199E175503031D0A
:1012E000732924000E14023020005502031D7A29B0
:1012F00025008E17033020005502031D812924008C
:101300001414043020005502031D88292500941769
:10131000053020005502031D8F2924001A140630C1
:1013200020005502031D962925009A172000080069
:1013300099111911191099100800F0017508790216
:101340000319F0090800F00175087902031D08006F
:1013500076087A02031D0800F0090800F001031462
:1013600079087502031CF0090800F00176087A027A
:10137000031C08007A087602031CC229790875024A
:1013800003180800F0090800F90803190800F00123
:101390000830F4000310F50DF00D7908F002751413
:1013A0000318D52975107908F007F40BCA2908002D
:1013B0007508F7007608F8007908FB007A08FC0049
:1013C000F201F3017B08F5007C08F600F901FA014F
:1013D000A321701CEE29F501F60108001030F4007D
:1013E0000310F70DF80DF20DF30D7B08F2027C08E7
:1013F000F33B77140318012A77107B08F2077C0867
:10140000F33DF40BF0297708F5007808F600720830
:10141000F0007308F1000800F00175087918F00772
:101420000310F90C0310F50DF908031D0D2A08002F
:1014300078088A007708F70A0319F80A82000D3441
:1014400045345834543449344E344734553449348F
:101450005334483449344E3447341134233431340E
:10146000203456344934433454344F34523459348C
:10147000203452344F34593441344C3445340134DF
:101480002034B90A0319BA0A08009915191119105C
:1014900099140800991119151914991008005B087E
:1014A000F5005C08F6003708F9003808FA00B521A5
:1014B000701C602A48175B08B7005C08B800612AF6
:0414C00048130800C5
:020000040001F9
:0A000E008C3FFE3F9F3FFF1FFF3FA6
:00000001FF
