:020000040000FA
:0400000080312428FF
:10000800FE00030EFF0008082000C9000A08C4000B
:100018008A012E00961E19288C1E192820008A3164
:100028002E2280312E008C121928200044088A00C4
:0E003800490888007F0E8300FE0E7E0E090030
:10004800942224228B170B17941114111410941056
:100058009114111591151116911212109210121176
:100068001212921212139213B901BA010130D80078
:100078008030D7000130D6008831902080311E12A0
:10008800A0309D009C01D50140272E009616200027
:100098009911191119109910C201C301B40148141A
:1000A800C814AA01AB01FF30B500B6004811C5015C
:1000B800C601A201A301A601A60AEA302607840008
:1000C800CF0123304F3D85008001E43026078400AE
:1000D800CF0123304F3D8500800105302602031CE7
:1000E80060280130BC000130BB00A801A901C81577
:1000F8004812FF30B700B800A7010A30F200F30138
:1001080088313D20803148108C184814F001481C73
:10011800F0097008CF00F001C818F0094F08700501
:10012800D100511CA328B40A3408CF004F1CA328BF
:10013800C8114B303907C50000303A3DC600C81019
:100148004818C814AF224208F5004308F6003908D9
:10015800F9003A08FA008931A2218031701CBC28C4
:100168004B2480310A303907C20000303A3DC300C1
:100178003B083C02031972275908F9005A08FA008B
:100188002830F500F6018931A2218031701CE92858
:100198000130A1000A30D4008831002080310730B6
:1001A800A1000530D4008831002080310430A1003E
:1001B8002830D4008831002080310130A1003C3043
:1001C800D40088310020803111295D08F5005E08CF
:1001D800F6001430F900FA018931A2218031701C2F
:1001E80011290130A1000A30D40088310020803163
:1001F8000730A1000530D400883100208131033058
:10020800A1002830D4008831002081310130A100BC
:100218003C30D40088310020813115232408F500B2
:100228002508F6001930F900FA018931A221813137
:100238007008CF005D08F5005E08F6001430F9007C
:10024800FA018931A22181314F087005D100511C72
:10025800302934213229312996128728630032291E
:100268009616883127208131AE01AD0189311521DB
:1002780081310C30CB008A30CC0089312D2181317D
:100288000130AE00AD018931152181312408B0005B
:100298002508B100B1238131EA303C078400D1013F
:1002A8002330513D8500033080002408B50025081F
:1002B800B6003908F9003A08FA002208F5002308C0
:1002C800F6008931A22181317008D1002408F90093
:1002D8002508FA002030F5000330F6008931A22104
:1002E800813151087005D30053180A2A0230A00042
:1002F8001A263F08A4004108A500883153208131FF
:10030800C81E9929EA303C078400D1012330513DA9
:10031800850003300002031D95298A313722813177
:1003280098298A3132228131C129EA303C07840078
:10033800D1012330513D850003300002031DB1294E
:100348008A3132228131EA303C078400D1012330DE
:10035800513D850004308000BD298A313722813122
:10036800EA303C078400D1012330513D8500033039
:1003780080002408B5002508B6008831272081317F
:10038800AE01AD018931152181310C30CB008A30A5
:10039800CC0089312D2181310130AE00AD01893188
:1003A800152181312408B0002508B100B12381311D
:1003B8002408F9002508FA002030F5000330F6007B
:1003C8008931A22181317008D1002208F500230863
:1003D800F600F901FA01893190218131510870053F
:1003E800D300531CFD292C303907A20001303A3DB7
:1003F800A3001430F200F30188313D2082316D27CB
:100408000130F40088314B2082315D299612883101
:1004180027208231AE01AD018931152182311A3090
:10042800CB008A30CC0089312D218A3137228231A4
:10043800F430F2000130F30088313D2082316D2F15
:100448001210121192100A30F200F30188313D2087
:1004580082318831F8208231AF0803192D2A17100C
:10046800121292121213921397100F30F200F30126
:1004780088313D20823117169716171397130530C8
:10048800F000F00B452A17150530F000F00B4A2A4A
:1004980017110530F200F30188313D208231033015
:1004A800CE0017150530F000F00B582A171102304E
:1004B800F100F001F00B5E2AF10B5D2A1330F00019
:1004C800F00B642ACE0B552A0530F200F30188316F
:1004D8003D20823117129716171397130530F00035
:1004E800F00B742A17150530F000F00B792A171154
:1004F8008530F000F00B7E2A2830AC008831A4202B
:1005080082310630AC008831A42082310C30AC0036
:100518008831A4208831272082310C30B3000800AC
:10052800603031008D008F019101920106309300F7
:100538002100131193133E00B801C301CE01D90164
:10054800E40133009413901320008C018D018E0177
:100558008F01900108000330A000F9243E08DB0059
:10056800DC0103305B02CF0000305C3BD0008330FD
:10057800F5001A30F6004F08F9005008FA008931E2
:10058800C52182317508D1007608D20004305102A5
:10059800CF000030523BD0004F08F5005008F6005D
:1005A8000530F900FA018931C52182317508D90071
:1005B8007608DA000430A000F9243E08DF00E001E4
:1005C80003305F02CF000030603BD0008330F5007D
:1005D8001A30F6004F08F9005008FA008931C52191
:1005E80082317508D1007608D20004305102CF005C
:1005F8000030523BD0004F08F5005008F600053097
:10060800F900FA018931C52183317508DD007608C2
:10061800DE000230A0001A263F08A4004108A50009
:100628000800E4303C078400D1012330513D8500A7
:1006380028080007CF00D1012908513DD0004F08F4
:10064800F5005008F6003908F9003A08FA0089312F
:10065800A2218331701C3E2B3C08F5000530F900BF
:100668008931B1218331700ABC003908A8003A08E1
:10067800A900B02BEA303C078400D1012330513D5A
:1006880085008008031D512B6D27EA303C07840044
:10069800D1012330513D8500B02B0003031D5F2B92
:1006A800883186208331EA303C078400D101233029
:1006B800513D8500B02B0003031D6D2B883122208E
:1006C8008331EA303C078400D1012330513D850055
:1006D800B02B03300002031D7C2B8A313722833173
:1006E800EA303C078400D1012330513D8500B02B0E
:1006F80004300002031D8B2B8A3132228331EA3009
:100708003C078400D1012330513D8500B02B0530D2
:100718000002031D9A2B893185218331EA303C0779
:100728008400D1012330513D8500B02B06300002F2
:10073800031DA92B893180218331EA303C078400CD
:10074800D1012330513D8500B02B07300002031D35
:10075800B02B88318B20833108001714B201300880
:10076800F5003108F6001030F9002730FA00893119
:10077800A2218331F009701CD92B3008F50031080B
:10078800F6001030F9002730FA008931C52183318D
:100798007508B2007008B0007108B1003030320737
:1007A800AC008831A4208331E72B3008F5003108EC
:1007B800F600E830F9000330FA008931A2218331CC
:1007C800F009701CFF2B3008F5003108F600E830FE
:1007D800F9000330FA008931C52183317508B20068
:1007E8007008B0007108B10030303207AC008831B1
:1007F800A42083310C2C3008F5003108F600643051
:10080800F900FA018931A2218431F009701C232CE6
:100818003008F5003108F6006430F900FA01893132
:10082800C52184317508B2007008B0007108B100A4
:1008380030303207AC008831A4208431302C3008A5
:10084800F5003108F6000A30F900FA018931A221D1
:100858008431F009701C462C3008F5003108F60088
:100868000A30F900FA018931C52184317508B200CE
:100878007008B0007108B10030303207AC00883120
:10088800A420843130303007AC008831A428883166
:1008980027208431AE01AD018931152184313B080F
:1008A8003C020318952CA6013C083B02D3000130FA
:1008B800F9005308F50089319B2184317018942C74
:1008C800A60A26083C07D30002305302CF00F500E1
:1008D8000530F9008931B12184317008D300530AF9
:1008E800CF00EA304F078400D3012330533D850001
:1008F8000008B00089314B2184312C30CB008A307C
:10090800CC0089312D2184313C083B02D3002608D4
:10091800F5005308F90089319B2184317018642C43
:10092800DA2C3C083B020318DA2CA6013B083C02EF
:10093800D300053CCF000130F9004F08F50089319C
:100948009B2184317018DA2CA60A26083C07D300AC
:1009580002305302CF00F5000530F9008931B1218A
:1009680084317008D300530ACF00EA304F0784005F
:10097800D3012330533D85000008B00089314B2155
:1009880084312C30CB008A30CC0089312D21843140
:100998003B083C02D300053CCF002608F5004F0871
:1009A800F90089319B2184317018A82C0130AE00E0
:1009B800AD018931152184312C30CB008A30CC002F
:1009C80089312D2184315908B0005A08B100B1236A
:1009D80084312C30CB008A30CC0089312D218431F0
:1009E8005D08B0005E08B100B12B21001311200092
:1009F800200821009E002000A008031D062D3E00AF
:100A08003814F22D2003031D0C2D3E00B814F22DCE
:100A180002302002031D132D3E003815F22D03303D
:100A28002002031D1A2D3E00B815F22D04302002B5
:100A3800031D212D3E003816F22D05302002031D1E
:100A4800282D3E00B816F22D06302002031D2F2D4A
:100A58003E003817F22D07302002031D362D3E00C8
:100A6800B817F22D08302002031D3D2D3E00431417
:100A7800F22D09302002031D442D3E00C314F22D2F
:100A88000A302002031D4B2D3E004315F22D0B307A
:100A98002002031D522D3E00C315F22D0C302002FA
:100AA800031D592D3E004316F22D0D302002031D63
:100AB800602D3E00C316F22D0E302002031D672D57
:100AC8003E004317F22D0F302002031D6E2D3E000D
:100AD800C317F22D10302002031D752D3E004E1451
:100AE800F22D11302002031D7C2D3E00CE14F22D74
:100AF80012302002031D832D3E004E15F22D1330B7
:100B08002002031D8A2D3E00CE15F22D143020023E
:100B1800031D912D3E004E16F22D15302002031DA7
:100B2800982D3E00CE16F22D16302002031D9F2D63
:100B38003E004E17F22D17302002031DA62D3E0051
:100B4800CE17F22D18302002031DAD2D3E0059148A
:100B5800F22D19302002031DB42D3E00D914F22DB8
:100B68001A302002031DBB2D3E005915F22D1B30F3
:100B78002002031DC22D3E00D915F22D1C30200283
:100B8800031DC92D3E005916F22D1D302002031DEC
:100B9800D02D3E00D916F22D1E302002031DD72D70
:100BA8003E005917F22D1F302002031DDE2D3E0096
:100BB800D917F22D20302002031DE52D3E006414C4
:100BC800F22D21302002031DEC2D3E00E414F22DFD
:100BD80022302002031DF22D3E006415210013125D
:100BE8000130980013120F309800131113112000D0
:100BF800200821009E0093170230F500200088315C
:100C0800352086312100131400001318092E931380
:100C18003E00B801C301CE01D901E40121000D084D
:100C28002000BE0021001311200008002100131528
:100C38002000200821009E002000A008031D272E68
:100C48003E003814132F2003031D2D2E3E00B81428
:100C5800132F02302002031D342E3E003815132FA7
:100C680003302002031D3B2E3E00B815132F04301D
:100C78002002031D422E3E003816132F0530200295
:100C8800031D492E3E00B816132F06302002031DFF
:100C9800502E3E003817132F07302002031D572E01
:100CA8003E00B817132F08302002031D5E2E3E00A9
:100CB8004314132F09302002031D652E3E00C31470
:100CC800132F0A302002031D6C2E3E004315132FEC
:100CD8000B302002031D732E3E00C315132F0C305A
:100CE8002002031D7A2E3E004316132F0D302002DA
:100CF800031D812E3E00C316132F0E302002031D44
:100D0800882E3E004317132F0F302002031D8F2E0D
:100D18003E00C317132F10302002031D962E3E00ED
:100D28004E14132F11302002031D9D2E3E00CE14A9
:100D3800132F12302002031DA42E3E004E15132F30
:100D480013302002031DAB2E3E00CE15132F143096
:100D58002002031DB22E3E004E16132F153020021E
:100D6800031DB92E3E00CE16132F16302002031D88
:100D7800C02E3E004E17132F17302002031DC72E1A
:100D88003E00CE17132F18302002031DCE2E3E0032
:100D98005914132F19302002031DD52E3E00D914E3
:100DA800132F1A302002031DDC2E3E005915132F75
:100DB8001B302002031DE32E3E00D915132F1C30D3
:100DC8002002031DEA2E3E005916132F1D30200263
:100DD800031DF12E3E00D916132F1E302002031DCD
:100DE800F82E3E005917132F1F302002031DFF2E27
:100DF8003E00D917132F20302002031D062F3E0076
:100E08006414132F21302002031D0D2F3E00E4141B
:100E1800132F22302002031D132F3E0064152100DA
:100E280013120130980013120F3098001315131580
:100E38002000200821009E0093170230F5002000B2
:100E480088313520873121001314000013182A2F08
:100E580093133E00B801C301CE01D901E40121007A
:100E68000C082000BF00C10121000D082000C100AE
:100E78002100131120000800D50803199E175503F7
:100E8800031D482F24000E14023020005502031DB4
:100E98004F2F25008E17033020005502031D562FB3
:100EA80024001414043020005502031D5D2F250072
:100EB8009417053020005502031D642F24001A14CE
:100EC800063020005502031D6B2F25009A172000BD
:100ED8000800991119111910991008005908F500FE
:100EE8005A08F6000930F900FA018931A221873140
:100EF8007008D3002708F5000230F90089318A21EB
:100F08008731F00953087005CF004F1CA52F8A318F
:100F18003C228731481F982F0530A1000A30D400A1
:100F2800883100208731A42F0230A700FF30B70096
:100F3800B8000130A1001430D40088310020873176
:100F4800F82F5908F9005A08FA000F30F500F60191
:100F58008931A22187317008D3002708F5000130B4
:100F6800F90089318A218731F00953087005CF00CB
:100F78004F1CD82F8A313C228731481FCB2F06308F
:100F8800A1000A30D400883100208731D72F0130E2
:100F9800A700FF30B700B8000130A1001430D4001A
:100FA800883100208731F82F5908F9005A08FA00CB
:100FB8000F30F500F6018931A2218731F009700858
:100FC800D3005908F5005A08F6000930F900FA016B
:100FD8008931A2218731F00953087005CF004F18D5
:0A0FE800A701883186208731080038
:101000003B083C02031D08283908A8003A08A9003B
:10101000EA303B078400CF0123304F3D8500210893
:101020008000E4303B078400CF0123304F3D850032
:10103000540880003B08F5000530F900B121700A22
:10104000BB00080099111915191099140800171000
:101050000130AC00A4200430F200F3013D208030C8
:10106000AC00A4200C30F50035281930F000F00B4E
:1010700037280000F50B35280800F30A0E30F10080
:10108000BD30F000F00B4228F10B4028F20B3E2857
:10109000F30B3E280800E830F2000330F3003D2057
:1010A000F40B4B2808002408F5002508F600350845
:1010B000F9003608FA00A221701C6428C81624081A
:1010C000B5002508B60085282408F5002508F60097
:1010D0000A30F900FA01C5217508CF007608D00062
:1010E0004F082407D1005008253DD2005108F900CF
:1010F0005208FA003508F5003608F600A221F0097A
:10110000701C8428C8168528C81208009915191162
:101110001914991008009915191519149914080033
:10112000F0301F05D300D704580303199928D616A9
:101130009A28D61257089F00E0301E05D300D60427
:10114000561256089E000800F820AF080319A4287C
:10115000971012129212121392131712971217135A
:101160009713AC1B97172C1B1717AC1A97162C1A32
:1011700017160230F000F00BBB28000017150530E1
:10118000F000F00BC12817110530F000F00BC62855
:101190001712971217139713AC1997172C191717C3
:1011A000AC1897162C1817160230F000F00BD62842
:1011B000000017150530F000F00BDC281711053082
:1011C000F000F00BE1289713171397121712553000
:1011D000F000F00BE9280D18F72810302C02031846
:1011E000F7282C08073C0318F7282C08B300080040
:1011F000AF014A110D184A1597140530F500352036
:1012000017100530F500352017150530F50035208D
:1012100092178D1B0D29FF30AF0017111930F50003
:10122000352017104A191714080017102E08013C12
:1012300003181E290230AE021030AD072E08F5004B
:101240004030F900F9212D087007D3008030530495
:10125000AC00A4200530F50035284B0884004C086C
:1012600085000008BD00BD08031908001714CD0152
:1012700001303D02031C4A29CD0A4D084B0784006A
:1012800000304C3D85000008AC00A4203D084D0214
:10129000031C3C290800B201171464303002031CFF
:1012A0005E293008F5006430F900B1217508B200FC
:1012B0007008B00030303207AC00A4203208F900CA
:1012C000F5019B217008D3003008F5000A30F900C1
:1012D0009B21F00953087004CF004F1C7C29300873
:1012E000F5000A30F900B1217508B2007008B000AD
:1012F00030303207AC00A42030303007AC00A428D6
:10130000991519111910991008009911191119142A
:1013100099100800F001750879020319F009080016
:10132000F00175087902031D080076087A02031D92
:101330000800F0090800F001031479087502031C85
:10134000F0090800F00176087A02031C08007A0808
:101350007602031CAF297908750203180800F0090A
:101360000800F90803190800F0010830F400031020
:10137000F50DF00D7908F00275140318C2297510E7
:101380007908F007F40BB72908007508F70076080C
:10139000F8007908FB007A08FC00F201F3017B08F1
:1013A000F5007C08F600F901FA019021701CDB2998
:1013B000F501F60108001030F4000310F70DF80DE8
:1013C000F20DF30D7B08F2027C08F33B771403184F
:1013D000EE2977107B08F2077C08F33DF40BDD293A
:1013E0007708F5007808F6007208F0007308F1003D
:1013F0000800F00175087918F0070310F90C0310C4
:10140000F50DF908031DFA29080078088A00770805
:10141000F70A0319F80A82000D344534583454345D
:1014200049344E34473455344934533448344934BC
:101430004E34473411342334313420345634493453
:10144000433454344F3452345934203452344F34AA
:10145000593441344C34453401342034B90A031929
:10146000BA0A080099151911191099140800991150
:1014700019151914991008005908F5005A08F600B2
:101480003708F9003808FA00A221701C4D2A4817C5
:0E1490005908B7005A08B8004E2A4813080041
:020000040001F9
:0A000E008C3FFE3F9F3FFF1FFF3FA6
:00000001FF
