:020000040000FA
:040000008031222801
:10000800FE00030EFF0008082000B7000A08B5002C
:100018008A012E00961E17288C1E172820002026DD
:100028002E008C121728200035088A00370888000F
:0A0038007F0E8300FE0E7E0E09000D
:10004400E02181218B170B179411141114109410B3
:10005400911411159115111691121210921012117A
:100064001212921212139213AD01AE010130C400A8
:100074008030C3000130C200FB211E12A0309D005D
:100084009C01C1017A252E009616200099111911A0
:1000940019109910C7308600233087001830F700F4
:1000A4000630F8000126A101A201B301B401033016
:1000B400A00037233008C700C80103304702BD0041
:1000C4000030483BBE008330F5001A30F6003D088E
:1000D400F9003E08FA00C1257508BF007608C00083
:1000E40004303F02BD000030403BBE003D08F50037
:1000F4003E08F6000530F900FA01C1257508C5006F
:100104007608C6000430A00037233008CB00CC01A9
:1001140003304B02BD0000304C3BBE008330F50081
:100124001A30F6003D08F9003E08FA00C1257508AA
:10013400BF007608C00004303F02BD000030403BE1
:10014400BE003D08F5003E08F6000530F900FA014E
:10015400C1257508C9007608CA000230A0005624DB
:100164003108A3003208A4003308F5003408F6006F
:100174002D08F9002E08FA00B225701CF228582127
:10018400A701A6018022C730B9002330BA00982203
:100194002108A9002208AA00B6220130A700A6015E
:1001A40080222D08A9002E08AA00B6221A30B90010
:1001B4008630BA0098224508A9004608AA00B6224B
:1001C4001A30B9008630BA0098224908A9004A08B2
:1001D400AA00B6220A302D07B30000302E3DB40029
:1001E4002108F5002208F6002D08F9002E08FA006F
:1001F400B225701C55294908F5004A08F6000A3052
:10020400F900FA01B225701C1729C7308600233083
:1002140087001C30F7000630F800012664302D07F3
:10022400A10000302E3DA20055294508F5004608DE
:10023400F6000A30F900FA01B225701C3129C730E2
:100244008600233087001C30F7000630F8000126B2
:1002540032302D07A10000302E3DA200552945085B
:10026400F9004608FA001E30F500F601B225701CAC
:100274004B29C7308600233087001E30F700063034
:10028400F800012632302D07A10000302E3DA200D7
:100294005529C7308600233087001830F700063010
:1002A400F80001267C2159286300562917100130D3
:1002B400A5000F220430F200F3016E218030A50066
:1002C4000F220C30F50066291930F000F00B682974
:1002D4000000F50B66290800F30A0E30F100BD306A
:1002E400F000F00B7329F10B7129F20B6F29F30B5A
:1002F4006F29080099151911191499100800121082
:10030400121192100A30F200F3016E216322A80840
:1003140003198829171012129212121392139710AC
:100324000F30F200F3016E21171697161713971367
:100334000530F000F00B9C2917150530F000F00B88
:10034400A12917110530F200F3016E210330BC001E
:1003540017150530F000F00BAD2917110230F1002C
:10036400F001F00BB329F10BB2291330F000F00BBC
:10037400B929BC0BAA290530F200F3016E2117122A
:100384009716171397130530F000F00BC7291715AC
:100394000530F000F00BCC2917118530F000F00B7C
:1003A400D1292830A5000F220630A5000F220C30D9
:1003B400A5000F2258210C30AC0008006030310039
:1003C4008D008F01910192010630930021001311D9
:1003D40093133E00B801C301CE01D901E4013300F7
:1003E4009413901320008C018D018E018F019001D4
:1003F4000800F0301F05BD00C30444030319042A98
:10040400C216052AC21243089F00E0301E05BD0033
:10041400C204421242089E0008006322A80803197D
:100424000F2A971012129212121392131712971284
:1004340017139713A51B9717251B1717A51A97169C
:10044400251A17160230F000F00B262A00001715A3
:100454000530F000F00B2C2A17110530F000F00BDA
:10046400312A1712971217139713A51997172519DD
:100474001717A5189716251817160230F000F00B59
:10048400412A000017150530F000F00B472A171118
:100494000530F000F00B4C2A97131713971217121C
:1004A4005530F000F00B542A0D18622A1030250242
:1004B4000318622A2508073C0318622A2508AC00A1
:1004C4000800A80138110D18381597140530F500E7
:1004D400662117100530F500662117150530F50063
:1004E400662192178D1B782AFF30A8001711193046
:1004F400F50066211710381917140800171027087B
:10050400013C0318892A0230A7021030A6072708E5
:10051400F5004030F900F52526087007BD0080304D
:100524003D04A5000F220530F50066293908840032
:100534003A0885000008AF00AF0803190800171433
:10054400BB0101302F02031CB52ABB0A3B08390743
:10055400840000303A3D85000008A5000F222F08D2
:100564003B02031CA72A08001714AB012908F50055
:100574002A08F6001030F9002730FA00B225F009F5
:10058400701CD82A2908F5002A08F6001030F90052
:100594002730FA00C1257508AB007008A90071085E
:1005A400AA0030302B07A5000F22E42A2908F50001
:1005B4002A08F600E830F9000330FA00B225F00901
:1005C400701CF82A2908F5002A08F600E830F9001A
:1005D4000330FA00C1257508AB007008A900710842
:1005E400AA0030302B07A5000F22032B2908F500A1
:1005F4002A08F6006430F900FA01B225F009701CEB
:10060400162B2908F5002A08F6006430F900FA01CF
:10061400C1257508AB007008A9007108AA00303024
:100624002B07A5000F22212B2908F5002A08F60024
:100634000A30F900FA01B225F009701C332B29089D
:10064400F5002A08F6000A30F900FA01C1257508F8
:10065400AB007008A9007108AA0030302B07A50070
:100664000F2230302907A5000F2A21001311200082
:10067400200821009E002000A008031D442B3E00FA
:100684003814302C2003031D4A2B3E00B814302CA0
:1006940002302002031D512B3E003815302C03304C
:1006A4002002031D582B3E00B815302C04302002C4
:1006B400031D5F2B3E003816302C05302002031D2D
:1006C400662B3E00B816302C06302002031D6D2B1D
:1006D4003E003817302C07302002031D742B3E00D7
:1006E400B817302C08302002031D7B2B3E00431426
:1006F400302C09302002031D822B3E00C314302C01
:100704000A302002031D892B3E004315302C0B3088
:100714002002031D902B3E00C315302C0C30200208
:10072400031D972B3E004316302C0D302002031D71
:100734009E2B3E00C316302C0E302002031DA52B29
:100744003E004317302C0F302002031DAC2B3E001B
:10075400C317302C10302002031DB32B3E004E145F
:10076400302C11302002031DBA2B3E00CE14302C45
:1007740012302002031DC12B3E004E15302C1330C5
:100784002002031DC82B3E00CE15302C143020024D
:10079400031DCF2B3E004E16302C15302002031DB6
:1007A400D62B3E00CE16302C16302002031DDD2B36
:1007B4003E004E17302C17302002031DE42B3E0060
:1007C400CE17302C18302002031DEB2B3E00591499
:1007D400302C19302002031DF22B3E00D914302C8A
:1007E4001A302002031DF92B3E005915302C1B3002
:1007F4002002031D002C3E00D915302C1C30200291
:10080400031D072C3E005916302C1D302002031DF9
:100814000E2C3E00D916302C1E302002031D152C40
:100824003E005917302C1F302002031D1C2C3E00A3
:10083400D917302C20302002031D232C3E006414D1
:10084400302C21302002031D2A2C3E00E414302CCD
:1008540022302002031D302C3E00641521001312A7
:100864000130980013120F30980013111311200057
:10087400200821009E0093170230F5002000662115
:100884002100131400001318452C93133E00B801E3
:10089400C301CE01D901E40121000D082000B000FC
:1008A4002100131120000800210013152000200846
:1008B40021009E002000A008031D632C3E00381474
:1008C4004F2D2003031D692C3E00B8144F2D023018
:1008D4002002031D702C3E0038154F2D03302002DA
:1008E400031D772C3E00B8154F2D04302002031D44
:1008F4007E2C3E0038164F2D05302002031D852C1A
:100904003E00B8164F2D06302002031D8C2C3E00ED
:1009140038174F2D07302002031D932C3E00B817C3
:100924004F2D08302002031D9A2C3E0043144F2DF6
:1009340009302002031DA12C3E00C3144F2D0A30A0
:100944002002031DA82C3E0043154F2D0B3020021E
:10095400031DAF2C3E00C3154F2D0C302002031D88
:10096400B62C3E0043164F2D0D302002031DBD2C26
:100974003E00C3164F2D0E302002031DC42C3E0032
:1009840043174F2D0F302002031DCB2C3E00C317FD
:100994004F2D10302002031DD22C3E004E144F2D3B
:1009A40011302002031DD92C3E00CE144F2D1230DD
:1009B4002002031DE02C3E004E154F2D1330200263
:1009C400031DE72C3E00CE154F2D14302002031DCD
:1009D400EE2C3E004E164F2D15302002031DF52C33
:1009E4003E00CE164F2D16302002031DFC2C3E0077
:1009F4004E174F2D17302002031D032D3E00CE1736
:100A04004F2D18302002031D0A2D3E0059144F2D7E
:100A140019302002031D112D3E00D9144F2D1A3018
:100A24002002031D182D3E0059154F2D1B302002A6
:100A3400031D1F2D3E00D9154F2D1C302002031D10
:100A4400262D3E0059164F2D1D302002031D2D2D3D
:100A54003E00D9164F2D1E302002031D342D3E00BA
:100A640059174F2D1F302002031D3B2D3E00D9176F
:100A74004F2D20302002031D422D3E0064144F2DC3
:100A840021302002031D492D3E00E4144F2D223055
:100A94002002031D4F2D3E00641521001312013066
:100AA400980013120F309800131513152000200816
:100AB40021009E0093170230F500200066212100DA
:100AC400131400001318642D93133E00B801C301DE
:100AD400CE01D901E40121000C082000B100B201CB
:100AE40021000D082000B20021001311200008008D
:100AF400C10803199E174103031D822D24000E14FF
:100B0400023020004102031D892D25008E17033079
:100B140020004102031D902D2400141404302000F1
:100B24004102031D972D2500941705302000410232
:100B3400031D9E2D24001A14063020004102031DBB
:100B4400A52D25009A1720000800F00175087902E8
:100B5400031D080076087A02031D0800F009080046
:100B6400F00176087A02031C08007A087602031C56
:100B7400BF2D7908750203180800F00908007508EC
:100B8400F7007608F8007908FB007A08FC00F20107
:100B9400F3017B08F5007C08F600F901FA01A725AA
:100BA400701CD72DF501F60108001030F400031075
:100BB400F70DF80DF20DF30D7B08F2027C08F33B00
:100BC40077140318EA2D77107B08F2077C08F33DAD
:100BD400F40BD92D7708F5007808F6007208F000B8
:100BE4007308F1000800F00175087918F007031084
:100BF400F90C0310F50DF908031DF62D0800112654
:100C0400F5008100082E1126F500F607F5080319F2
:100C14000800112641318100F50B0B2E08007808DD
:100C24008A007708F70A0319F80A82000134663447
:100C3400013420340134723401346C34AD0A0319A4
:100C4400AE0A080099151911191099140800991180
:080C540019151914991008008C
:020000040001F9
:0A000E008C3FFE3F9F3FFF1FFF3FA6
:00000001FF
