:020000040000FA
:04000000803105281E
:1000080009003A20941114111410941092169911A1
:1000180019111910991035208D1E17281A20013032
:10002800F4002D203520102863001828991119157F
:10003800191099140800F30A0E30F100BD30F000D1
:10004800F00B2428F10B2228F20B2028F30B202890
:100058000800E830F2000330F3001F20F40B2D28CD
:100068000800991519111914991008006030310009
:100078008D008F0191019201063093002100131128
:1000880093133E00B801C301CE01D901E401330046
:100098009413901320008C018D018E018F01900123
:0200A80008004E
:020000040001F9
:0A000E008C3FFE3F9F3FFF1FFF3FA6
:00000001FF
