:020000040000FA
:04000000803105281E
:100008000900EF20902094111411141094109114E9
:100018001115911511169112121092101211121237
:100028009212121392139911191119109910033081
:10003800A000E6212A08F5001030F9005F237008B7
:10004800B60003303602B1008330F5001A30F600EE
:100058003108F900FA012B237508B3007608B400BB
:1000680004303302B1000030343BB2003108F500EF
:100078003208F6000530F900FA012B237508B5009F
:100088000230A000E6212A08A1006420A401A301EF
:100098007B217230AD008330AE0093210130A40083
:1000A800A3017B212108A600B12196160530F40092
:1000B800882096120130F40088201B2863006228EB
:1000C80017100130A2000A210430F200F3017A204F
:1000D8008030A2000A210C30F50072281930F00097
:1000E800F00B74280000F50B72280800F30A0E3094
:1000F800F100BD30F000F00B7F28F10B7D28F20BEA
:100108007B28F30B7B280800E830F2000330F3006B
:100118007A20F40B882808001210121192100A3065
:10012800F200F3017A205E21A50803199728171019
:10013800121292121213921397100F30F200F30159
:100148007A2017169716171397130530F000F00B3F
:10015800AB2817150530F000F00BB0281711053043
:10016800F200F3017A200330B00017150530F000D3
:10017800F00BBC2817110230F100F001F00BC22877
:10018800F10BC1281330F000F00BC828B00BB928C8
:100198000530F200F3017A201712971617139713F8
:1001A8000530F000F00BD62817150530F000F00BDD
:1001B800DB2817118530F000F00BE0282830A2006A
:1001C8000A210630A2000A210C30A2000A2164206C
:1001D8000C30A8000800603031008D008F019101BB
:1001E8009201063093002100131193133E00B801C9
:1001F800C301CE01D901E401330094139013200008
:100208008C018D018E018F01900108005E21A508E7
:1002180003190A2997101212921212139213171225
:10022800971217139713A21B9717221B1717A21AB7
:100238009716221A17160230F000F00B2129000039
:1002480017150530F000F00B272917110530F000BD
:10025800F00B2C291712971217139713A219971737
:1002680022191717A2189716221817160230F0002D
:10027800F00B3C29000017150530F000F00B42295F
:1002880017110530F000F00B472997131713971231
:1002980017125530F000F00B4F290D185D2910305A
:1002A800220203185D292208073C03185D29220849
:1002B800A8000800A5012C110D182C15971405305D
:1002C800F500722017100530F5007220171505305B
:1002D800F500722092178D1B7329FF30A5001711A6
:1002E8001930F500722017102C1917140800171070
:1002F8002408013C031884290230A4021030A30703
:100308002408F5004030F9005F2323087007B10086
:1003180080303104A2000A210530F50072282D082A
:1003280084002E0885000008A900A9080319080000
:100338001714AF0101302902031CB029AF0A2F0896
:100348002D07840000302E3D85000008A2000A21F8
:1003580029082F02031CA2290800A70117146430DA
:100368002602031CC4292608F5006430F900172367
:100378007508A7007008A60030302707A2000A21D8
:100388002708F900F50110237008B1002608F500C8
:100398000A30F9001023F00931087004B300331C47
:1003A800E2292608F5000A30F90017237508A70086
:1003B8007008A60030302707A2000A21303026072F
:1003C800A2000A29210013112000200821009E0004
:1003D8002000A008031DF3293E003814DF2A20035B
:1003E800031DF9293E00B814DF2A02302002031D3C
:1003F800002A3E003815DF2A03302002031D072A91
:100408003E00B815DF2A04302002031D0E2A3E00E4
:100418003816DF2A05302002031D152A3E00B816BB
:10042800DF2A06302002031D1C2A3E003817DF2A67
:1004380007302002031D232A3E00B817DF2A0830A0
:100448002002031D2A2A3E004314DF2A0930200215
:10045800031D312A3E00C314DF2A0A302002031D7F
:10046800382A3E004315DF2A0B302002031D3F2A9D
:100478003E00C315DF2A0C302002031D462A3E0029
:100488004316DF2A0D302002031D4D2A3E00C316F5
:10049800DF2A0E302002031D542A3E004317DF2AAC
:1004A8000F302002031D5B2A3E00C317DF2A1030DD
:1004B8002002031D622A3E004E14DF2A113020025A
:1004C800031D692A3E00CE14DF2A12302002031DC4
:1004D800702A3E004E15DF2A13302002031D772AAA
:1004E8003E00CE15DF2A14302002031D7E2A3E006E
:1004F8004E16DF2A15302002031D852A3E00CE162F
:10050800DF2A16302002031D8C2A3E004E17DF2AF0
:1005180017302002031D932A3E00CE17DF2A183019
:100528002002031D9A2A3E005914DF2A193020029E
:10053800031DA12A3E00D914DF2A1A302002031D08
:10054800A82A3E005915DF2A1B302002031DAF2AB6
:100558003E00D915DF2A1C302002031DB62A3E00B2
:100568005916DF2A1D302002031DBD2A3E00D91668
:10057800DF2A1E302002031DC42A3E005917DF2A35
:100588001F302002031DCB2A3E00D917DF2A203056
:100598002002031DD22A3E006414DF2A21302002E3
:1005A800031DD92A3E00E414DF2A22302002031D4D
:1005B800DF2A3E006415210013120130980013123F
:1005C8000F309800131113112000200821009E00FD
:1005D80093170230F5002000722021001314000048
:1005E8001318F42A93133E00B801C301CE01D901B0
:1005F800E40121000D082000AA00210013112000A9
:100608000800F00175087902031D080076087A02CF
:10061800031D0800F0090800F001031479087502A9
:10062800031CF0090800F90803190800F001083054
:10063800F4000310F50DF00D7908F0027514031895
:10064800282B75107908F007F40B1D2B0800750886
:10065800F7007608F8007908FB007A08FC00F20138
:10066800F3017B08F5007C08F600F901FA0105237F
:10067800701C412BF501F60108001030F40003103E
:10068800F70DF80DF20DF30D7B08F2027C08F33B31
:1006980077140318542B77107B08F2077C08F33D76
:1006A800F40B432B7708F5007808F6007208F00081
:1006B8007308F1000800F00175087918F0070310B5
:1006C800F90C0310F50DF908031D602B08007808D4
:1006D8008A007708F70A0319F80A820007344634B3
:0C06E8006C3461346D3465343A342034D5
:020000040001F9
:0A000E008C3FFE3F9F3FFF1FFF3FA6
:00000001FF
