:020000040000FA
:04000000803105281E
:1000080009002F21D0209411141114109410911468
:100018001115911511169112121092101211121237
:100028009212121392139911191119109910033081
:10003800A00072222C08BB00BC0103303B02B500B3
:1000480000303C3BB6008330F5001A30F600350826
:10005800F9003608FA00CF247508B7007608B8000A
:1000680004303702B5000030383BB6003508F500DB
:100078003608F6000530F900FA01CF247508B900F2
:100088007608BA000430A00072222C08BF00C00114
:1000980003303F02B5000030403BB6008330F50026
:1000A8001A30F6003508F9003608FA00CF2475082A
:1000B800B7007608B80004303702B5000030383B86
:1000C800B6003508F5003608F6000530F900FA01E3
:1000D800CF247508BD007608BE000230A000912329
:1000E8002D08A1002E08A200A420A501A401BB216F
:1000F8001630B1008530B200D3212108A7002208AC
:10010800A800F1210130A500A401BB213908A700EE
:100118003A08A800F1210130A5000830A400BB214D
:100128003D08A7003E08A800F12196160530F40006
:10013800C82096120130F400C8201B286300A228AA
:1001480017100130A3004A210430F200F301BA204D
:100158008030A3004A210C30F500B2281930F00095
:10016800F00BB4280000F50BB2280800F30A0E3093
:10017800F100BD30F000F00BBF28F10BBD28F20BE9
:10018800BB28F30BBB280800E830F2000330F3006B
:10019800BA20F40BC82808001210121192100A3065
:1001A800F200F301BA209E21A6080319D7281710D8
:1001B800121292121213921397100F30F200F301D9
:1001C800BA2017169716171397130530F000F00B7F
:1001D800EB2817150530F000F00BF0281711053043
:1001E800F200F301BA200330B40017150530F0000F
:1001F800F00BFC2817110230F100F001F00B022976
:10020800F10B01291330F000F00B0829B40BF92881
:100218000530F200F301BA20171297161713971337
:100228000530F000F00B162917150530F000F00B1B
:100238001B2917118530F000F00B20292830A30066
:100248004A210630A3004A210C30A3004A21A420E9
:100258000C30AA000800603031008D008F01910138
:100268009201063093002100131193133E00B80148
:10027800C301CE01D901E401330094139013200087
:100288008C018D018E018F01900108009E21A60826
:1002980003194A2997101212921212139213171265
:1002A800971217139713A31B9717231B1717A31A34
:1002B8009716231A17160230F000F00B6129000078
:1002C80017150530F000F00B672917110530F000FD
:1002D800F00B6C291712971217139713A319971776
:1002E80023191717A3189716231817160230F000AA
:1002F800F00B7C29000017150530F000F00B82295F
:1003080017110530F000F00B872997131713971270
:1003180017125530F000F00B8F290D189D29103059
:10032800230203189D292308073C03189D29230845
:10033800AA000800A60130110D18301597140530D1
:10034800F500B22017100530F500B220171505305A
:10035800F500B22092178D1BB329FF30A6001711A4
:100368001930F500B22017103019171408001710AB
:100378002508013C0318C4290230A5021030A4073F
:100388002508F5004030F900032524087007B5005A
:1003980080303504A3004A210530F500B228310821
:1003A8008400320885000008AB00AB080319080078
:1003B8001714B30101302B02031CF029B30A3308C8
:1003C800310784000030323D85000008A3004A212F
:1003D8002B083302031CE22908001714A901270877
:1003E800F5002808F6001030F9002730FA00C0247C
:1003F800F009701C132A2708F5002808F6001030A9
:10040800F9002730FA00CF247508A9007008A70062
:100418007108A80030302907A3004A211F2A27089D
:10042800F5002808F600E830F9000330FA00C02487
:10043800F009701C332A2708F5002808F600E83070
:10044800F9000330FA00CF247508A9007008A70046
:100458007108A80030302907A3004A213E2A27083E
:10046800F5002808F6006430F900FA01C024F00904
:10047800701C512A2708F5002808F6006430F90096
:10048800FA01CF247508A9007008A7007108A80010
:1004980030302907A3004A215C2A2708F5002808DC
:1004A800F6000A30F900FA01C024F009701C6E2A1F
:1004B8002708F5002808F6000A30F900FA01CF24C9
:1004C8007508A9007008A7007108A800303029072E
:1004D800A3004A2130302707A3004A29210013111D
:1004E8002000200821009E002000A008031D7F2A6C
:1004F8003E0038146B2B2003031D852A3E00B814D8
:100508006B2B02302002031D8C2A3E0038156B2B02
:1005180003302002031D932A3E00B8156B2B0430CC
:100528002002031D9A2A3E0038166B2B0530200244
:10053800031DA12A3E00B8166B2B06302002031DAE
:10054800A82A3E0038176B2B07302002031DAF2A5C
:100558003E00B8176B2B08302002031DB62A3E0058
:1005680043146B2B09302002031DBD2A3E00C3141F
:100578006B2B0A302002031DC42A3E0043156B2B47
:100588000B302002031DCB2A3E00C3156B2B0C3009
:100598002002031DD22A3E0043166B2B0D30200289
:1005A800031DD92A3E00C3166B2B0E302002031DF3
:1005B800E02A3E0043176B2B0F302002031DE72A69
:1005C8003E00C3176B2B10302002031DEE2A3E009D
:1005D8004E146B2B11302002031DF52A3E00CE1459
:1005E8006B2B12302002031DFC2A3E004E156B2B8C
:1005F80013302002031D032B3E00CE156B2B143045
:100608002002031D0A2B3E004E166B2B15302002CC
:10061800031D112B3E00CE166B2B16302002031D36
:10062800182B3E004E176B2B17302002031D1F2B73
:100638003E00CE176B2B18302002031D262B3E00E0
:1006480059146B2B19302002031D2D2B3E00D91491
:100658006B2B1A302002031D342B3E0059156B2BCF
:100668001B302002031D3B2B3E00D9156B2B1C3081
:100678002002031D422B3E0059166B2B1D30200211
:10068800031D492B3E00D9166B2B1E302002031D7B
:10069800502B3E0059176B2B1F302002031D572B80
:1006A8003E00D9176B2B20302002031D5E2B3E0025
:1006B80064146B2B21302002031D652B3E00E414CB
:1006C8006B2B22302002031D6B2B3E00641521008A
:1006D80013120130980013120F30980013111311E0
:1006E8002000200821009E0093170230F50020000A
:1006F800B2202100131400001318802B93133E001E
:10070800B801C301CE01D901E40121000D08200080
:10071800AC0021001311200008002100131520004F
:10072800200821009E002000A008031D9E2B3E00EB
:1007380038148A2C2003031DA42B3E00B8148A2CDD
:1007480002302002031DAB2B3E0038158A2C0330E3
:100758002002031DB22B3E00B8158A2C043020025B
:10076800031DB92B3E0038168A2C05302002031DC4
:10077800C02B3E00B8168A2C06302002031DC72B5A
:100788003E0038178A2C07302002031DCE2B3E006E
:10079800B8178A2C08302002031DD52B3E004314BD
:1007A8008A2C09302002031DDC2B3E00C3148A2C3E
:1007B8000A302002031DE32B3E0043158A2C0B3020
:1007C8002002031DEA2B3E00C3158A2C0C302002A0
:1007D800031DF12B3E0043168A2C0D302002031D09
:1007E800F82B3E00C3168A2C0E302002031DFF2B67
:1007F8003E0043178A2C0F302002031D062C3E00B2
:10080800C3178A2C10302002031D0D2C3E004E14F5
:100818008A2C11302002031D142C3E00CE148A2C81
:1008280012302002031D1B2C3E004E158A2C13305B
:100838002002031D222C3E00CE158A2C14302002E3
:10084800031D292C3E004E168A2C15302002031D4C
:10085800302C3E00CE168A2C16302002031D372C71
:100868003E004E178A2C17302002031D3E2C3E00F6
:10087800CE178A2C18302002031D452C3E0059142F
:100888008A2C19302002031D4C2C3E00D9148A2CC6
:100898001A302002031D532C3E0059158A2C1B3098
:1008A8002002031D5A2C3E00D9158A2C1C30200228
:1008B800031D612C3E0059168A2C1D302002031D91
:1008C800682C3E00D9168A2C1E302002031D6F2C7E
:1008D8003E0059178A2C1F302002031D762C3E003B
:1008E800D9178A2C20302002031D7D2C3E00641469
:1008F8008A2C21302002031D842C3E00E4148A2C0B
:1009080022302002031D8A2C3E0064152100131298
:100918000130980013120F3098001315131520009A
:10092800200821009E0093170230F5002000B22015
:1009380021001314000013189F2C93133E00B801D4
:10094800C301CE01D901E40121000C082000AD004B
:10095800AE0121000D082000AE0021001311200077
:100968000800F00175087902031D080076087A026C
:10097800031D0800F0090800F00176087A02031C3C
:1009880008007A087602031CCD2C79087502031832
:100998000800F00908007508F7007608F8007908DB
:1009A800FB007A08FC00F201F3017B08F5007C08E3
:1009B800F600F901FA01B524701CE52CF501F601E1
:1009C80008001030F4000310F70DF80DF20DF30DC8
:1009D8007B08F2027C08F33B77140318F82C771095
:1009E8007B08F2077C08F33DF40BE72C7708F50049
:1009F8007808F6007208F0007308F1000800F001AA
:100A080075087918F0070310F90C0310F50DF908AB
:100A1800031D042D080078088A007708F70A0319CF
:0A0A2800F80A82000234463420343C
:020000040001F9
:0A000E008C3FFE3F9F3FFF1FFF3FA6
:00000001FF
