:020000040000FA
:04000000803105281E
:100008000900F120922094111411141094109114E5
:100018001115911511169112121092101211121237
:100028009212121392139911191119109910033081
:10003800A000E8212A08F5001030F90061237008B3
:10004800B60003303602B1008330F5001A30F600EE
:100058003108F900FA012D237508B3007608B400B9
:1000680004303302B1000030343BB2003108F500EF
:100078003208F6000530F900FA012D237508B5009D
:100088000230A000E8212A08A1006620A401A301EB
:100098007D217430AD008330AE0095210130A4007D
:1000A800A3017D212108A600B321E1302102031814
:1000B800622896160130F4008A20632896121B28BD
:1000C8006300642817100130A2000C210430F200EC
:1000D800F3017C208030A2000C210C30F50074283C
:1000E8001930F000F00B76280000F50B7428080092
:1000F800F30A0E30F100BD30F000F00B8128F10B4F
:100108007F28F20B7D28F30B7D280800E830F200E9
:100118000330F3007C20F40B8A2808001210121117
:1001280092100A30F200F3017C206021A50803191F
:1001380099281710121292121213921397100F3057
:10014800F200F3017C201716971617139713053042
:10015800F000F00BAD2817150530F000F00BB228B1
:1001680017110530F200F3017C200330B000171599
:100178000530F000F00BBE2817110230F100F00135
:10018800F00BC428F10BC3281330F000F00BCA2879
:10019800B00BBB280530F200F3017C20171297162C
:1001A800171397130530F000F00BD82817150530F2
:1001B800F000F00BDD2817118530F000F00BE22875
:1001C8002830A2000C210630A2000C210C30A2001D
:1001D8000C2166200C30A8000800603031008D002A
:1001E8008F0191019201063093002100131193139E
:1001F8003E00B801C301CE01D901E40133009413D4
:10020800901320008C018D018E018F019001080050
:100218006021A50803190C299710121292121213C3
:1002280092131712971217139713A21B9717221BD3
:100238001717A21A9716221A17160230F000F00B99
:100248002329000017150530F000F00B2929171194
:100258000530F000F00B2E29171297121713971379
:10026800A219971722191717A218971622181716E6
:100278000230F000F00B3E29000017150530F000A1
:10028800F00B442917110530F000F00B492997139A
:100298001713971217125530F000F00B51290D184B
:1002A8005F291030220203185F292208073C03182F
:1002B8005F292208A8000800A5012C110D182C158B
:1002C80097140530F500742017100530F5007420D8
:1002D80017150530F500742092178D1B7529FF300E
:1002E800A50017111930F500742017102C191714D0
:1002F800080017102408013C031886290230A402BC
:100308001030A3072408F5004030F90061232308C2
:100318007007B10080303104A2000C210530F500CF
:1003280074282D0884002E0885000008A900A90853
:10033800031908001714AF0101302902031CB22960
:10034800AF0A2F082D07840000302E3D85000008D5
:10035800A2000C2129082F02031CA4290800A701C8
:10036800171464302602031CC6292608F5006430D9
:10037800F90019237508A7007008A6003030270770
:10038800A2000C212708F900F50112237008B1001A
:100398002608F5000A30F9001223F0093108700424
:1003A800B300331CE4292608F5000A30F9001923A4
:1003B8007508A7007008A60030302707A2000C2196
:1003C80030302607A2000C29210013112000200834
:1003D80021009E002000A008031DF5293E003814C6
:1003E800E12A2003031DFB293E00B814E12A02304C
:1003F8002002031D022A3E003815E12A033020029C
:10040800031D092A3E00B815E12A04302002031D05
:10041800102A3E003816E12A05302002031D172A4B
:100428003E00B816E12A06302002031D1E2A3E00AF
:100438003817E12A07302002031D252A3E00B81785
:10044800E12A08302002031D2C2A3E004314E12A29
:1004580009302002031D332A3E00C314E12A0A3062
:100468002002031D3A2A3E004315E12A0B302002E0
:10047800031D412A3E00C315E12A0C302002031D4A
:10048800482A3E004316E12A0D302002031D4F2A58
:100498003E00C316E12A0E302002031D562A3E00F4
:1004A8004317E12A0F302002031D5D2A3E00C317BF
:1004B800E12A10302002031D642A3E004E14E12A6E
:1004C80011302002031D6B2A3E00CE14E12A12309F
:1004D8002002031D722A3E004E15E12A1330200225
:1004E800031D792A3E00CE15E12A14302002031D8F
:1004F800802A3E004E16E12A15302002031D872A65
:100508003E00CE16E12A16302002031D8E2A3E0038
:100518004E17E12A17302002031D952A3E00CE17F8
:10052800E12A18302002031D9C2A3E005914E12AB2
:1005380019302002031DA32A3E00D914E12A1A30DB
:100548002002031DAA2A3E005915E12A1B30200269
:10055800031DB12A3E00D915E12A1C302002031DD3
:10056800B82A3E005916E12A1D302002031DBF2A71
:100578003E00D916E12A1E302002031DC62A3E007D
:100588005917E12A1F302002031DCD2A3E00D91732
:10059800E12A20302002031DD42A3E006414E12AF7
:1005A80021302002031DDB2A3E00E414E12A223018
:1005B8002002031DE12A3E006415210013120130B8
:1005C800980013120F3098001311131120002008FF
:1005D80021009E0093170230F500200074202100AE
:1005E800131400001318F62A93133E00B801C30130
:1005F800CE01D901E40121000D082000AA00210044
:10060800131120000800F00175087902031D080085
:1006180076087A02031D0800F0090800F0010314A7
:1006280079087502031CF0090800F9080319080085
:10063800F0010830F4000310F50DF00D7908F00210
:10064800751403182A2B75107908F007F40B1F2B63
:1006580008007508F7007608F8007908FB007A08A2
:10066800FC00F201F3017B08F5007C08F600F901B3
:10067800FA010723701C432BF501F601080010301E
:10068800F4000310F70DF80DF20DF30D7B08F202DC
:100698007C08F33B77140318562B77107B08F20776
:1006A8007C08F33DF40B452B7708F5007808F60035
:1006B8007208F0007308F1000800F0017508791855
:1006C800F0070310F90C0310F50DF908031D622B50
:1006D800080078088A007708F70A0319F80A8200E0
:1006E800073446346C3461346D3465343A3420341C
:020000040001F9
:0A000E008C3FFE3F9F3FFF1FFF3FA6
:00000001FF
