:020000040000FA
:04000000803105281E
:1000080009005521F6201115911511169116111791
:100018009117151495141515131493141315931596
:100028001316931613179317121092101211121217
:100038009212121392130230A0002E222808B20046
:100048000330A0002E222808B00003303202AB0093
:100058008330F5001A30F6002B08F900FA017323F3
:100068007508AD007608AE0004302D02AB000030F4
:100078002E3BAC002B08F5002C08F6000530F900E3
:10008800FA0173237508B10003303002AB008330E6
:10009800F5001A30F6002B08F900FA0173237508E9
:1000A800AD007608AE0004302D02AB0000302E3BC8
:1000B800AC002B08F5002C08F6000530F900FA0111
:1000C80073237508AF00D220A301A201E1210330F8
:1000D800A0002E222808A500F9210430A0002E2215
:1000E8002808A500F9210530A0002E222808A5001F
:1000F800F9210630A0002E222808A500F921073092
:10010800A0002E222808A500F9212030A0002E22C8
:100118002808A500F9212130A0002E222808A500D2
:10012800F9212230A0002E222808A500F92101304B
:10013800A300A201E1211030A0002E222808A5006A
:10014800F9211130A0002E222808A500F92112302B
:10015800A0002E222808A500F9211330A0002E2285
:100168002808A500F9211430A0002E222808A5008F
:10017800F9211530A0002E222808A500F9211630F3
:10018800A0002E222808A500F9211730A0002E2251
:100198002808A500F9211F286300D028171001306E
:1001A800A10070210430F200F301E8208030A100A2
:1001B80070210C30F500E0281930F000F00BE2282F
:1001C8000000F50BE0280800F30A0E30F100BD30FE
:1001D800F000F00BED28F10BEB28F20BE928F30BFC
:1001E800E92808001210121192100A30F200F301E7
:1001F800E820C421A4080319FD281710121292122E
:100208001213921397100F30F200F301E82017161B
:100218009716171397130530F000F00B11291715CF
:100228000530F000F00B162917110530F200F30124
:10023800E8200330AA0017150530F000F00B22293A
:1002480017110230F100F001F00B2829F10B2729D2
:100258001330F000F00B2E29AA0B1F290530F200ED
:10026800F301E82017129716171397130530F000BB
:10027800F00B3C2917150530F000F00B4129171138
:100288008530F000F00B46292830A1007021063097
:10029800A10070210C30A1007021D2200C30A700E1
:1002A8000800603031008D008F0191019201063005
:1002B80093002100131193133E00B801C301CE012E
:1002C800D901E40133009413901320008C018D01AF
:1002D8008E018F0190010800C421A4080319702918
:1002E80097101212921212139213171297121713D1
:1002F8009713A11B9717211B1717A11A9716211AD5
:1003080017160230F000F00B87290000171505308A
:10031800F000F00B8D2917110530F000F00B922931
:100328001712971217139713A1199717211917174F
:10033800A1189716211817160230F000F00BA22901
:10034800000017150530F000F00BA829171105302B
:10035800F000F00BAD2997131713971217125530A9
:10036800F000F00BB5290D18C3291030210203182D
:10037800C3292108073C0318C3292108A70008003E
:10038800A40129110D18291597140530F500E0204E
:1003980017100530F500E02017150530F500E020AE
:1003A80092178D1BD929FF30A40017111930F500B9
:1003B800E020171029191714080017102308013C0A
:1003C8000318EA290230A3021030A2072308F50017
:1003D8004030F900A72322087007AB0080302B04B7
:1003E800A10070210530F500E028A601171464303B
:1003F8002502031C0C2A2508F5006430F9005F2348
:100408007508A6007008A50030302607A1007021E5
:100418002608F900F50158237008AB002508F500F7
:100428000A30F9005823F0092B087004AD002D1C80
:100438002A2A2508F5000A30F9005F237508A60066
:100448007008A50030302607A1007021303025073C
:10045800A1007029210013112000200821009E000E
:100468002000A008031D3B2A3E003814272B200338
:10047800031D412A3E00B814272B02302002031D19
:10048800482A3E003815272B03302002031D4F2A27
:100498003E00B815272B04302002031D562A3E00C3
:1004A8003816272B05302002031D5D2A3E00B8169A
:1004B800272B06302002031D642A3E003817272BFD
:1004C80007302002031D6B2A3E00B817272B08307F
:1004D8002002031D722A3E004314272B09302002F4
:1004E800031D792A3E00C314272B0A302002031D5E
:1004F800802A3E004315272B0B302002031D872A34
:100508003E00C315272B0C302002031D8E2A3E0007
:100518004316272B0D302002031D952A3E00C316D3
:10052800272B0E302002031D9C2A3E004317272B41
:100538000F302002031DA32A3E00C317272B1030BB
:100548002002031DAA2A3E004E14272B1130200238
:10055800031DB12A3E00CE14272B12302002031DA2
:10056800B82A3E004E15272B13302002031DBF2A40
:100578003E00CE15272B14302002031DC62A3E004C
:100588004E16272B15302002031DCD2A3E00CE160D
:10059800272B16302002031DD42A3E004E17272B86
:1005A80017302002031DDB2A3E00CE17272B1830F8
:1005B8002002031DE22A3E005914272B193020027D
:1005C800031DE92A3E00D914272B1A302002031DE7
:1005D800F02A3E005915272B1B302002031DF72A4D
:1005E8003E00D915272B1C302002031DFE2A3E0091
:1005F8005916272B1D302002031D052B3E00D91646
:10060800272B1E302002031D0C2B3E005917272BC9
:100618001F302002031D132B3E00D917272B203033
:100628002002031D1A2B3E006414272B21302002C0
:10063800031D212B3E00E414272B22302002031D2A
:10064800272B3E0064152100131201309800131265
:100658000F309800131113112000200821009E006C
:1006680093170230F5002000E02021001314000049
:1006780013183C2B93133E00B801C301CE01D901D6
:10068800E40121000D082000A8002100131120001A
:100698000800F00175087902031D080076087A023F
:1006A800031D0800F0090800F00103147908750219
:1006B800031CF0090800F90803190800F0010830C4
:1006C800F4000310F50DF00D7908F0027514031805
:1006D800702B75107908F007F40B652B0800750866
:1006E800F7007608F8007908FB007A08FC00F201A8
:1006F800F3017B08F5007C08F600F901FA014D23A7
:10070800701C892BF501F60108001030F400031065
:10071800F70DF80DF20DF30D7B08F2027C08F33BA0
:10072800771403189C2B77107B08F2077C08F33D9D
:10073800F40B8B2B7708F5007808F6007208F000A8
:100748007308F1000800F00175087918F007031024
:0E075800F90C0310F50DF908031DA82B08007D
:020000040001F9
:0A000E008C3FFE3F9F3FFF1FFF3FA6
:00000001FF
